8=FIX.4.4|9=86|35=A|34=1|49=EXEC_SERVER|52=20260402-11:46:09.028|56=MINIFIX_CLIENT|98=0|108=30|141=Y|10=189|8=FIX.4.4|9=164|35=8|34=2|49=EXEC_SERVER|52=20260402-11:46:11.026|56=MINIFIX_CLIENT|6=0|11=STRESS_1|14=0|17=EXEC_1775130371026|37=GEN_1775130371026|39=0|54=1|55=GOOG|150=0|151=100|10=079|8=FIX.4.4|9=164|35=8|34=3|49=EXEC_SERVER|52=20260402-11:46:11.030|56=MINIFIX_CLIENT|6=0|11=STRESS_2|14=0|17=EXEC_1775130371030|37=GEN_1775130371030|39=0|54=2|55=MSFT|150=0|151=200|10=082|8=FIX.4.4|9=163|35=8|34=4|49=EXEC_SERVER|52=20260402-11:46:11.034|56=MINIFIX_CLIENT|6=0|11=STRESS_3|14=0|17=EXEC_1775130371034|37=GEN_1775130371034|39=0|54=1|55=IBM|150=0|151=500|10=255|8=FIX.4.4|9=164|35=8|34=5|49=EXEC_SERVER|52=20260402-11:46:11.044|56=MINIFIX_CLIENT|6=0|11=STRESS_4|14=0|17=EXEC_1775130371044|37=GEN_1775130371044|39=0|54=2|55=GOOG|150=0|151=100|10=086|8=FIX.4.4|9=170|35=8|34=6|49=EXEC_SERVER|52=20260402-11:46:11.050|56=MINIFIX_CLIENT|6=101|11=STRESS_5|14=200|17=EXEC-4ead442f|31=101|32=200|37=ORD_75494575|39=2|54=2|55=MSFT|150=F|151=0|10=243|8=FIX.4.4|9=164|35=8|34=7|49=EXEC_SERVER|52=20260402-11:46:11.050|56=MINIFIX_CLIENT|6=0|11=STRESS_5|14=0|17=EXEC_1775130371050|37=GEN_1775130371050|39=0|54=1|55=MSFT|150=0|151=200|10=094|8=FIX.4.4|9=169|35=8|34=8|49=EXEC_SERVER|52=20260402-11:46:11.054|56=MINIFIX_CLIENT|6=102|11=STRESS_6|14=500|17=EXEC-0f766a6e|31=102|32=500|37=ORD_7a3cfc9c|39=2|54=1|55=IBM|150=F|151=0|10=099|8=FIX.4.4|9=163|35=8|34=9|49=EXEC_SERVER|52=20260402-11:46:11.054|56=MINIFIX_CLIENT|6=0|11=STRESS_6|14=0|17=EXEC_1775130371054|37=GEN_1775130371054|39=0|54=2|55=IBM|150=0|151=500|10=014|8=FIX.4.4|9=165|35=8|34=10|49=EXEC_SERVER|52=20260402-11:46:11.058|56=MINIFIX_CLIENT|6=0|11=STRESS_7|14=0|17=EXEC_1775130371057|37=GEN_1775130371057|39=0|54=1|55=GOOG|150=0|151=100|10=146|8=FIX.4.4|9=165|35=8|34=11|49=EXEC_SERVER|52=20260402-11:46:11.062|56=MINIFIX_CLIENT|6=0|11=STRESS_8|14=0|17=EXEC_1775130371062|37=GEN_1775130371062|39=0|54=2|55=MSFT|150=0|151=200|10=151|8=FIX.4.4|9=164|35=8|34=12|49=EXEC_SERVER|52=20260402-11:46:11.065|56=MINIFIX_CLIENT|6=0|11=STRESS_9|14=0|17=EXEC_1775130371065|37=GEN_1775130371065|39=0|54=1|55=IBM|150=0|151=500|10=065|8=FIX.4.4|9=166|35=8|34=13|49=EXEC_SERVER|52=20260402-11:46:11.068|56=MINIFIX_CLIENT|6=0|11=STRESS_10|14=0|17=EXEC_1775130371068|37=GEN_1775130371068|39=0|54=2|55=GOOG|150=0|151=100|10=198|8=FIX.4.4|9=166|35=8|34=14|49=EXEC_SERVER|52=20260402-11:46:11.072|56=MINIFIX_CLIENT|6=0|11=STRESS_11|14=0|17=EXEC_1775130371072|37=GEN_1775130371072|39=0|54=1|55=MSFT|150=0|151=200|10=199|8=FIX.4.4|9=171|35=8|34=15|49=EXEC_SERVER|52=20260402-11:46:11.074|56=MINIFIX_CLIENT|6=103|11=STRESS_12|14=500|17=EXEC-a32ee84c|31=103|32=500|37=ORD_81fbb512|39=2|54=1|55=IBM|150=F|151=0|10=125|8=FIX.4.4|9=165|35=8|34=16|49=EXEC_SERVER|52=20260402-11:46:11.076|56=MINIFIX_CLIENT|6=0|11=STRESS_12|14=0|17=EXEC_1775130371076|37=GEN_1775130371076|39=0|54=2|55=IBM|150=0|151=500|10=119|8=FIX.4.4|9=172|35=8|34=17|49=EXEC_SERVER|52=20260402-11:46:11.079|56=MINIFIX_CLIENT|6=102|11=STRESS_13|14=100|17=EXEC-64969ac0|31=102|32=100|37=ORD_d7146ad6|39=2|54=2|55=GOOG|150=F|151=0|10=126|8=FIX.4.4|9=166|35=8|34=18|49=EXEC_SERVER|52=20260402-11:46:11.080|56=MINIFIX_CLIENT|6=0|11=STRESS_13|14=0|17=EXEC_1775130371080|37=GEN_1775130371080|39=0|54=1|55=GOOG|150=0|151=100|10=187|8=FIX.4.4|9=166|35=8|34=19|49=EXEC_SERVER|52=20260402-11:46:11.083|56=MINIFIX_CLIENT|6=0|11=STRESS_14|14=0|17=EXEC_1775130371083|37=GEN_1775130371083|39=0|54=2|55=MSFT|150=0|151=200|10=214|8=FIX.4.4|9=171|35=8|34=20|49=EXEC_SERVER|52=20260402-11:46:11.086|56=MINIFIX_CLIENT|6=104|11=STRESS_15|14=500|17=EXEC-8d24ef7f|31=104|32=500|37=ORD_87aab897|39=2|54=2|55=IBM|150=F|151=0|10=157|8=FIX.4.4|9=165|35=8|34=21|49=EXEC_SERVER|52=20260402-11:46:11.087|56=MINIFIX_CLIENT|6=0|11=STRESS_15|14=0|17=EXEC_1775130371087|37=GEN_1775130371087|39=0|54=1|55=IBM|150=0|151=500|10=123|8=FIX.4.4|9=172|35=8|34=22|49=EXEC_SERVER|52=20260402-11:46:11.091|56=MINIFIX_CLIENT|6=101|11=STRESS_16|14=100|17=EXEC-7e583453|31=101|32=100|37=ORD_40dc4c56|39=2|54=1|55=GOOG|150=F|151=0|10=066|8=FIX.4.4|9=166|35=8|34=23|49=EXEC_SERVER|52=20260402-11:46:11.091|56=MINIFIX_CLIENT|6=0|11=STRESS_16|14=0|17=EXEC_1775130371091|37=GEN_1775130371091|39=0|54=2|55=GOOG|150=0|151=100|10=193|8=FIX.4.4|9=166|35=8|34=24|49=EXEC_SERVER|52=20260402-11:46:11.096|56=MINIFIX_CLIENT|6=0|11=STRESS_17|14=0|17=EXEC_1775130371096|37=GEN_1775130371096|39=0|54=1|55=MSFT|150=0|151=200|10=224|8=FIX.4.4|9=165|35=8|34=25|49=EXEC_SERVER|52=20260402-11:46:11.099|56=MINIFIX_CLIENT|6=0|11=STRESS_18|14=0|17=EXEC_1775130371099|37=GEN_1775130371099|39=0|54=2|55=IBM|150=0|151=500|10=140|8=FIX.4.4|9=172|35=8|34=26|49=EXEC_SERVER|52=20260402-11:46:11.102|56=MINIFIX_CLIENT|6=103|11=STRESS_19|14=100|17=EXEC-120f6fc2|31=103|32=100|37=ORD_5a8cb89c|39=2|54=2|55=GOOG|150=F|151=0|10=211|8=FIX.4.4|9=166|35=8|34=27|49=EXEC_SERVER|52=20260402-11:46:11.104|56=MINIFIX_CLIENT|6=0|11=STRESS_19|14=0|17=EXEC_1775130371103|37=GEN_1775130371103|39=0|54=1|55=GOOG|150=0|151=100|10=182|8=FIX.4.4|9=166|35=8|34=28|49=EXEC_SERVER|52=20260402-11:46:11.106|56=MINIFIX_CLIENT|6=0|11=STRESS_20|14=0|17=EXEC_1775130371106|37=GEN_1775130371106|39=0|54=2|55=MSFT|150=0|151=200|10=199|8=FIX.4.4|9=165|35=8|34=29|49=EXEC_SERVER|52=20260402-11:46:11.109|56=MINIFIX_CLIENT|6=0|11=STRESS_21|14=0|17=EXEC_1775130371109|37=GEN_1775130371109|39=0|54=1|55=IBM|150=0|151=500|10=113|8=FIX.4.4|9=172|35=8|34=30|49=EXEC_SERVER|52=20260402-11:46:11.113|56=MINIFIX_CLIENT|6=101|11=STRESS_22|14=100|17=EXEC-b8c131b7|31=101|32=100|37=ORD_6e61f086|39=2|54=1|55=GOOG|150=F|151=0|10=101|8=FIX.4.4|9=166|35=8|34=31|49=EXEC_SERVER|52=20260402-11:46:11.113|56=MINIFIX_CLIENT|6=0|11=STRESS_22|14=0|17=EXEC_1775130371113|37=GEN_1775130371113|39=0|54=2|55=GOOG|150=0|151=100|10=174|8=FIX.4.4|9=172|35=8|34=32|49=EXEC_SERVER|52=20260402-11:46:11.116|56=MINIFIX_CLIENT|6=102|11=STRESS_23|14=200|17=EXEC-018854b1|31=102|32=200|37=ORD_15656ff5|39=2|54=2|55=MSFT|150=F|151=0|10=034|8=FIX.4.4|9=166|35=8|34=33|49=EXEC_SERVER|52=20260402-11:46:11.117|56=MINIFIX_CLIENT|6=0|11=STRESS_23|14=0|17=EXEC_1775130371117|37=GEN_1775130371117|39=0|54=1|55=MSFT|150=0|151=200|10=203|8=FIX.4.4|9=165|35=8|34=34|49=EXEC_SERVER|52=20260402-11:46:11.120|56=MINIFIX_CLIENT|6=0|11=STRESS_24|14=0|17=EXEC_1775130371120|37=GEN_1775130371120|39=0|54=2|55=IBM|150=0|151=500|10=092|8=FIX.4.4|9=172|35=8|34=35|49=EXEC_SERVER|52=20260402-11:46:11.124|56=MINIFIX_CLIENT|6=103|11=STRESS_25|14=100|17=EXEC-4900a5af|31=103|32=100|37=ORD_feb9ae17|39=2|54=2|55=GOOG|150=F|151=0|10=001|8=FIX.4.4|9=166|35=8|34=36|49=EXEC_SERVER|52=20260402-11:46:11.125|56=MINIFIX_CLIENT|6=0|11=STRESS_25|14=0|17=EXEC_1775130371125|37=GEN_1775130371125|39=0|54=1|55=GOOG|150=0|151=100|10=190|8=FIX.4.4|9=172|35=8|34=37|49=EXEC_SERVER|52=20260402-11:46:11.128|56=MINIFIX_CLIENT|6=101|11=STRESS_26|14=200|17=EXEC-3d0cbd53|31=101|32=200|37=ORD_d6b5c7dc|39=2|54=1|55=MSFT|150=F|151=0|10=063|8=FIX.4.4|9=166|35=8|34=38|49=EXEC_SERVER|52=20260402-11:46:11.129|56=MINIFIX_CLIENT|6=0|11=STRESS_26|14=0|17=EXEC_1775130371129|37=GEN_1775130371129|39=0|54=2|55=MSFT|150=0|151=200|10=221|8=FIX.4.4|9=165|35=8|34=39|49=EXEC_SERVER|52=20260402-11:46:11.131|56=MINIFIX_CLIENT|6=0|11=STRESS_27|14=0|17=EXEC_1775130371131|37=GEN_1775130371131|39=0|54=1|55=IBM|150=0|151=500|10=105|8=FIX.4.4|9=166|35=8|34=40|49=EXEC_SERVER|52=20260402-11:46:11.134|56=MINIFIX_CLIENT|6=0|11=STRESS_28|14=0|17=EXEC_1775130371134|37=GEN_1775130371134|39=0|54=2|55=GOOG|150=0|151=100|10=189|8=FIX.4.4|9=172|35=8|34=41|49=EXEC_SERVER|52=20260402-11:46:11.138|56=MINIFIX_CLIENT|6=102|11=STRESS_29|14=200|17=EXEC-f835f17b|31=102|32=200|37=ORD_ce7b0bea|39=2|54=2|55=MSFT|150=F|151=0|10=070|8=FIX.4.4|9=166|35=8|34=42|49=EXEC_SERVER|52=20260402-11:46:11.139|56=MINIFIX_CLIENT|6=0|11=STRESS_29|14=0|17=EXEC_1775130371139|37=GEN_1775130371139|39=0|54=1|55=MSFT|150=0|151=200|10=221|8=FIX.4.4|9=165|35=8|34=43|49=EXEC_SERVER|52=20260402-11:46:11.141|56=MINIFIX_CLIENT|6=0|11=STRESS_30|14=0|17=EXEC_1775130371141|37=GEN_1775130371141|39=0|54=2|55=IBM|150=0|151=500|10=098|8=FIX.4.4|9=166|35=8|34=44|49=EXEC_SERVER|52=20260402-11:46:11.144|56=MINIFIX_CLIENT|6=0|11=STRESS_31|14=0|17=EXEC_1775130371144|37=GEN_1775130371144|39=0|54=1|55=GOOG|150=0|151=100|10=189|8=FIX.4.4|9=166|35=8|34=45|49=EXEC_SERVER|52=20260402-11:46:11.147|56=MINIFIX_CLIENT|6=0|11=STRESS_32|14=0|17=EXEC_1775130371147|37=GEN_1775130371147|39=0|54=2|55=MSFT|150=0|151=200|10=216|8=FIX.4.4|9=171|35=8|34=46|49=EXEC_SERVER|52=20260402-11:46:11.150|56=MINIFIX_CLIENT|6=102|11=STRESS_33|14=500|17=EXEC-47939b3f|31=102|32=500|37=ORD_1d3f7ac5|39=2|54=2|55=IBM|150=F|151=0|10=093|8=FIX.4.4|9=165|35=8|34=47|49=EXEC_SERVER|52=20260402-11:46:11.151|56=MINIFIX_CLIENT|6=0|11=STRESS_33|14=0|17=EXEC_1775130371151|37=GEN_1775130371151|39=0|54=1|55=IBM|150=0|151=500|10=107|8=FIX.4.4|9=166|35=8|34=48|49=EXEC_SERVER|52=20260402-11:46:11.153|56=MINIFIX_CLIENT|6=0|11=STRESS_34|14=0|17=EXEC_1775130371153|37=GEN_1775130371153|39=0|54=2|55=GOOG|150=0|151=100|10=197|8=FIX.4.4|9=172|35=8|34=49|49=EXEC_SERVER|52=20260402-11:46:11.156|56=MINIFIX_CLIENT|6=101|11=STRESS_35|14=200|17=EXEC-0e9283eb|31=101|32=200|37=ORD_70ab6308|39=2|54=2|55=MSFT|150=F|151=0|10=135|8=FIX.4.4|9=166|35=8|34=50|49=EXEC_SERVER|52=20260402-11:46:11.157|56=MINIFIX_CLIENT|6=0|11=STRESS_35|14=0|17=EXEC_1775130371157|37=GEN_1775130371157|39=0|54=1|55=MSFT|150=0|151=200|10=217|8=FIX.4.4|9=171|35=8|34=51|49=EXEC_SERVER|52=20260402-11:46:11.159|56=MINIFIX_CLIENT|6=101|11=STRESS_36|14=500|17=EXEC-ad98d837|31=101|32=500|37=ORD_c3e65377|39=2|54=1|55=IBM|150=F|151=0|10=060|8=FIX.4.4|9=165|35=8|34=52|49=EXEC_SERVER|52=20260402-11:46:11.162|56=MINIFIX_CLIENT|6=0|11=STRESS_36|14=0|17=EXEC_1775130371162|37=GEN_1775130371162|39=0|54=2|55=IBM|150=0|151=500|10=113|8=FIX.4.4|9=166|35=8|34=53|49=EXEC_SERVER|52=20260402-11:46:11.165|56=MINIFIX_CLIENT|6=0|11=STRESS_37|14=0|17=EXEC_1775130371165|37=GEN_1775130371165|39=0|54=1|55=GOOG|150=0|151=100|10=204|8=FIX.4.4|9=166|35=8|34=54|49=EXEC_SERVER|52=20260402-11:46:11.168|56=MINIFIX_CLIENT|6=0|11=STRESS_38|14=0|17=EXEC_1775130371168|37=GEN_1775130371168|39=0|54=2|55=MSFT|150=0|151=200|10=231|8=FIX.4.4|9=171|35=8|34=55|49=EXEC_SERVER|52=20260402-11:46:11.172|56=MINIFIX_CLIENT|6=103|11=STRESS_39|14=500|17=EXEC-d363b063|31=103|32=500|37=ORD_e0194c9a|39=2|54=2|55=IBM|150=F|151=0|10=043|8=FIX.4.4|9=165|35=8|34=56|49=EXEC_SERVER|52=20260402-11:46:11.172|56=MINIFIX_CLIENT|6=0|11=STRESS_39|14=0|17=EXEC_1775130371172|37=GEN_1775130371172|39=0|54=1|55=IBM|150=0|151=500|10=122|8=FIX.4.4|9=166|35=8|34=57|49=EXEC_SERVER|52=20260402-11:46:11.174|56=MINIFIX_CLIENT|6=0|11=STRESS_40|14=0|17=EXEC_1775130371174|37=GEN_1775130371174|39=0|54=2|55=GOOG|150=0|151=100|10=203|8=FIX.4.4|9=166|35=8|34=58|49=EXEC_SERVER|52=20260402-11:46:11.177|56=MINIFIX_CLIENT|6=0|11=STRESS_41|14=0|17=EXEC_1775130371177|37=GEN_1775130371177|39=0|54=1|55=MSFT|150=0|151=200|10=228|8=FIX.4.4|9=165|35=8|34=59|49=EXEC_SERVER|52=20260402-11:46:11.180|56=MINIFIX_CLIENT|6=0|11=STRESS_42|14=0|17=EXEC_1775130371180|37=GEN_1775130371180|39=0|54=2|55=IBM|150=0|151=500|10=117|8=FIX.4.4|9=172|35=8|34=60|49=EXEC_SERVER|52=20260402-11:46:11.182|56=MINIFIX_CLIENT|6=102|11=STRESS_43|14=100|17=EXEC-76625fdb|31=102|32=100|37=ORD_d80e3ffe|39=2|54=2|55=GOOG|150=F|151=0|10=014|8=FIX.4.4|9=166|35=8|34=61|49=EXEC_SERVER|52=20260402-11:46:11.183|56=MINIFIX_CLIENT|6=0|11=STRESS_43|14=0|17=EXEC_1775130371183|37=GEN_1775130371183|39=0|54=1|55=GOOG|150=0|151=100|10=200|8=FIX.4.4|9=166|35=8|34=62|49=EXEC_SERVER|52=20260402-11:46:11.185|56=MINIFIX_CLIENT|6=0|11=STRESS_44|14=0|17=EXEC_1775130371185|37=GEN_1775130371185|39=0|54=2|55=MSFT|150=0|151=200|10=224|8=FIX.4.4|9=171|35=8|34=63|49=EXEC_SERVER|52=20260402-11:46:11.189|56=MINIFIX_CLIENT|6=101|11=STRESS_45|14=500|17=EXEC-bd5dfdc2|31=101|32=500|37=ORD_15538271|39=2|54=2|55=IBM|150=F|151=0|10=094|8=FIX.4.4|9=165|35=8|34=64|49=EXEC_SERVER|52=20260402-11:46:11.190|56=MINIFIX_CLIENT|6=0|11=STRESS_45|14=0|17=EXEC_1775130371190|37=GEN_1775130371190|39=0|54=1|55=IBM|150=0|151=500|10=118|8=FIX.4.4|9=172|35=8|34=65|49=EXEC_SERVER|52=20260402-11:46:11.193|56=MINIFIX_CLIENT|6=101|11=STRESS_46|14=100|17=EXEC-bdc2b5c4|31=101|32=100|37=ORD_a7e91bac|39=2|54=1|55=GOOG|150=F|151=0|10=096|8=FIX.4.4|9=166|35=8|34=66|49=EXEC_SERVER|52=20260402-11:46:11.193|56=MINIFIX_CLIENT|6=0|11=STRESS_46|14=0|17=EXEC_1775130371193|37=GEN_1775130371193|39=0|54=2|55=GOOG|150=0|151=100|10=212|8=FIX.4.4|9=166|35=8|34=67|49=EXEC_SERVER|52=20260402-11:46:11.196|56=MINIFIX_CLIENT|6=0|11=STRESS_47|14=0|17=EXEC_1775130371196|37=GEN_1775130371196|39=0|54=1|55=MSFT|150=0|151=200|10=237|8=FIX.4.4|9=165|35=8|34=68|49=EXEC_SERVER|52=20260402-11:46:11.198|56=MINIFIX_CLIENT|6=0|11=STRESS_48|14=0|17=EXEC_1775130371198|37=GEN_1775130371198|39=0|54=2|55=IBM|150=0|151=500|10=150|8=FIX.4.4|9=172|35=8|34=69|49=EXEC_SERVER|52=20260402-11:46:11.202|56=MINIFIX_CLIENT|6=103|11=STRESS_49|14=100|17=EXEC-772f189b|31=103|32=100|37=ORD_2a38abf5|39=2|54=2|55=GOOG|150=F|151=0|10=179|8=FIX.4.4|9=166|35=8|34=70|49=EXEC_SERVER|52=20260402-11:46:11.203|56=MINIFIX_CLIENT|6=0|11=STRESS_49|14=0|17=EXEC_1775130371203|37=GEN_1775130371203|39=0|54=1|55=GOOG|150=0|151=100|10=185|8=FIX.4.4|9=166|35=8|34=71|49=EXEC_SERVER|52=20260402-11:46:11.205|56=MINIFIX_CLIENT|6=0|11=STRESS_50|14=0|17=EXEC_1775130371205|37=GEN_1775130371205|39=0|54=2|55=MSFT|150=0|151=200|10=200|8=FIX.4.4|9=165|35=8|34=72|49=EXEC_SERVER|52=20260402-11:46:11.208|56=MINIFIX_CLIENT|6=0|11=STRESS_51|14=0|17=EXEC_1775130371207|37=GEN_1775130371207|39=0|54=1|55=IBM|150=0|151=500|10=112|8=FIX.4.4|9=166|35=8|34=73|49=EXEC_SERVER|52=20260402-11:46:11.211|56=MINIFIX_CLIENT|6=0|11=STRESS_52|14=0|17=EXEC_1775130371210|37=GEN_1775130371210|39=0|54=2|55=GOOG|150=0|151=100|10=178|8=FIX.4.4|9=172|35=8|34=74|49=EXEC_SERVER|52=20260402-11:46:11.213|56=MINIFIX_CLIENT|6=102|11=STRESS_53|14=200|17=EXEC-b9bfac2e|31=102|32=200|37=ORD_784251bf|39=2|54=2|55=MSFT|150=F|151=0|10=021|8=FIX.4.4|9=166|35=8|34=75|49=EXEC_SERVER|52=20260402-11:46:11.214|56=MINIFIX_CLIENT|6=0|11=STRESS_53|14=0|17=EXEC_1775130371214|37=GEN_1775130371214|39=0|54=1|55=MSFT|150=0|151=200|10=206|8=FIX.4.4|9=165|35=8|34=76|49=EXEC_SERVER|52=20260402-11:46:11.217|56=MINIFIX_CLIENT|6=0|11=STRESS_54|14=0|17=EXEC_1775130371217|37=GEN_1775130371217|39=0|54=2|55=IBM|150=0|151=500|10=122|8=FIX.4.4|9=172|35=8|34=77|49=EXEC_SERVER|52=20260402-11:46:11.219|56=MINIFIX_CLIENT|6=101|11=STRESS_55|14=100|17=EXEC-712d4326|31=101|32=100|37=ORD_37de1170|39=2|54=2|55=GOOG|150=F|151=0|10=022|8=FIX.4.4|9=166|35=8|34=78|49=EXEC_SERVER|52=20260402-11:46:11.220|56=MINIFIX_CLIENT|6=0|11=STRESS_55|14=0|17=EXEC_1775130371220|37=GEN_1775130371220|39=0|54=1|55=GOOG|150=0|151=100|10=187|8=FIX.4.4|9=172|35=8|34=79|49=EXEC_SERVER|52=20260402-11:46:11.223|56=MINIFIX_CLIENT|6=101|11=STRESS_56|14=200|17=EXEC-f923319f|31=101|32=200|37=ORD_4ec6785e|39=2|54=1|55=MSFT|150=F|151=0|10=156|8=FIX.4.4|9=166|35=8|34=80|49=EXEC_SERVER|52=20260402-11:46:11.224|56=MINIFIX_CLIENT|6=0|11=STRESS_56|14=0|17=EXEC_1775130371224|37=GEN_1775130371224|39=0|54=2|55=MSFT|150=0|151=200|10=209|8=FIX.4.4|9=165|35=8|34=81|49=EXEC_SERVER|52=20260402-11:46:11.226|56=MINIFIX_CLIENT|6=0|11=STRESS_57|14=0|17=EXEC_1775130371226|37=GEN_1775130371226|39=0|54=1|55=IBM|150=0|151=500|10=120|8=FIX.4.4|9=166|35=8|34=82|49=EXEC_SERVER|52=20260402-11:46:11.229|56=MINIFIX_CLIENT|6=0|11=STRESS_58|14=0|17=EXEC_1775130371229|37=GEN_1775130371229|39=0|54=2|55=GOOG|150=0|151=100|10=213|8=FIX.4.4|9=172|35=8|34=83|49=EXEC_SERVER|52=20260402-11:46:11.232|56=MINIFIX_CLIENT|6=103|11=STRESS_59|14=200|17=EXEC-b0315bc1|31=103|32=200|37=ORD_b0a05701|39=2|54=2|55=MSFT|150=F|151=0|10=110|8=FIX.4.4|9=166|35=8|34=84|49=EXEC_SERVER|52=20260402-11:46:11.233|56=MINIFIX_CLIENT|6=0|11=STRESS_59|14=0|17=EXEC_1775130371233|37=GEN_1775130371233|39=0|54=1|55=MSFT|150=0|151=200|10=215|8=FIX.4.4|9=165|35=8|34=85|49=EXEC_SERVER|52=20260402-11:46:11.236|56=MINIFIX_CLIENT|6=0|11=STRESS_60|14=0|17=EXEC_1775130371236|37=GEN_1775130371236|39=0|54=2|55=IBM|150=0|151=500|10=122|8=FIX.4.4|9=166|35=8|34=86|49=EXEC_SERVER|52=20260402-11:46:11.239|56=MINIFIX_CLIENT|6=0|11=STRESS_61|14=0|17=EXEC_1775130371239|37=GEN_1775130371239|39=0|54=1|55=GOOG|150=0|151=100|10=213|8=FIX.4.4|9=166|35=8|34=87|49=EXEC_SERVER|52=20260402-11:46:11.241|56=MINIFIX_CLIENT|6=0|11=STRESS_62|14=0|17=EXEC_1775130371241|37=GEN_1775130371241|39=0|54=2|55=MSFT|150=0|151=200|10=210|8=FIX.4.4|9=171|35=8|34=88|49=EXEC_SERVER|52=20260402-11:46:11.244|56=MINIFIX_CLIENT|6=102|11=STRESS_63|14=500|17=EXEC-a774a050|31=102|32=500|37=ORD_586eb8e4|39=2|54=2|55=IBM|150=F|151=0|10=053|8=FIX.4.4|9=165|35=8|34=89|49=EXEC_SERVER|52=20260402-11:46:11.244|56=MINIFIX_CLIENT|6=0|11=STRESS_63|14=0|17=EXEC_1775130371244|37=GEN_1775130371244|39=0|54=1|55=IBM|150=0|151=500|10=125|8=FIX.4.4|9=166|35=8|34=90|49=EXEC_SERVER|52=20260402-11:46:11.247|56=MINIFIX_CLIENT|6=0|11=STRESS_64|14=0|17=EXEC_1775130371247|37=GEN_1775130371247|39=0|54=2|55=GOOG|150=0|151=100|10=209|8=FIX.4.4|9=172|35=8|34=91|49=EXEC_SERVER|52=20260402-11:46:11.249|56=MINIFIX_CLIENT|6=101|11=STRESS_65|14=200|17=EXEC-c931ae11|31=101|32=200|37=ORD_f8bf5821|39=2|54=2|55=MSFT|150=F|151=0|10=187|8=FIX.4.4|9=166|35=8|34=92|49=EXEC_SERVER|52=20260402-11:46:11.250|56=MINIFIX_CLIENT|6=0|11=STRESS_65|14=0|17=EXEC_1775130371250|37=GEN_1775130371250|39=0|54=1|55=MSFT|150=0|151=200|10=208|8=FIX.4.4|9=171|35=8|34=93|49=EXEC_SERVER|52=20260402-11:46:11.253|56=MINIFIX_CLIENT|6=101|11=STRESS_66|14=500|17=EXEC-33afbdeb|31=101|32=500|37=ORD_c2befda5|39=2|54=1|55=IBM|150=F|151=0|10=115|8=FIX.4.4|9=165|35=8|34=94|49=EXEC_SERVER|52=20260402-11:46:11.253|56=MINIFIX_CLIENT|6=0|11=STRESS_66|14=0|17=EXEC_1775130371253|37=GEN_1775130371253|39=0|54=2|55=IBM|150=0|151=500|10=125|8=FIX.4.4|9=166|35=8|34=95|49=EXEC_SERVER|52=20260402-11:46:11.255|56=MINIFIX_CLIENT|6=0|11=STRESS_67|14=0|17=EXEC_1775130371255|37=GEN_1775130371255|39=0|54=1|55=GOOG|150=0|151=100|10=213|8=FIX.4.4|9=166|35=8|34=96|49=EXEC_SERVER|52=20260402-11:46:11.258|56=MINIFIX_CLIENT|6=0|11=STRESS_68|14=0|17=EXEC_1775130371258|37=GEN_1775130371258|39=0|54=2|55=MSFT|150=0|151=200|10=240|8=FIX.4.4|9=171|35=8|34=97|49=EXEC_SERVER|52=20260402-11:46:11.261|56=MINIFIX_CLIENT|6=103|11=STRESS_69|14=500|17=EXEC-16bb4c31|31=103|32=500|37=ORD_661f6378|39=2|54=2|55=IBM|150=F|151=0|10=009|8=FIX.4.4|9=165|35=8|34=98|49=EXEC_SERVER|52=20260402-11:46:11.262|56=MINIFIX_CLIENT|6=0|11=STRESS_69|14=0|17=EXEC_1775130371262|37=GEN_1775130371262|39=0|54=1|55=IBM|150=0|151=500|10=131|8=FIX.4.4|9=166|35=8|34=99|49=EXEC_SERVER|52=20260402-11:46:11.264|56=MINIFIX_CLIENT|6=0|11=STRESS_70|14=0|17=EXEC_1775130371264|37=GEN_1775130371264|39=0|54=2|55=GOOG|150=0|151=100|10=212|8=FIX.4.4|9=167|35=8|34=100|49=EXEC_SERVER|52=20260402-11:46:11.266|56=MINIFIX_CLIENT|6=0|11=STRESS_71|14=0|17=EXEC_1775130371266|37=GEN_1775130371266|39=0|54=1|55=MSFT|150=0|151=200|10=009|8=FIX.4.4|9=166|35=8|34=101|49=EXEC_SERVER|52=20260402-11:46:11.268|56=MINIFIX_CLIENT|6=0|11=STRESS_72|14=0|17=EXEC_1775130371268|37=GEN_1775130371268|39=0|54=2|55=IBM|150=0|151=500|10=178|8=FIX.4.4|9=173|35=8|34=102|49=EXEC_SERVER|52=20260402-11:46:11.271|56=MINIFIX_CLIENT|6=102|11=STRESS_73|14=100|17=EXEC-1b0f6d6c|31=102|32=100|37=ORD_633136be|39=2|54=2|55=GOOG|150=F|151=0|10=204|8=FIX.4.4|9=167|35=8|34=103|49=EXEC_SERVER|52=20260402-11:46:11.272|56=MINIFIX_CLIENT|6=0|11=STRESS_73|14=0|17=EXEC_1775130371272|37=GEN_1775130371272|39=0|54=1|55=GOOG|150=0|151=100|10=246|8=FIX.4.4|9=167|35=8|34=104|49=EXEC_SERVER|52=20260402-11:46:11.274|56=MINIFIX_CLIENT|6=0|11=STRESS_74|14=0|17=EXEC_1775130371274|37=GEN_1775130371274|39=0|54=2|55=MSFT|150=0|151=200|10=014|8=FIX.4.4|9=172|35=8|34=105|49=EXEC_SERVER|52=20260402-11:46:11.276|56=MINIFIX_CLIENT|6=101|11=STRESS_75|14=500|17=EXEC-a37b57b9|31=101|32=500|37=ORD_6d46a7ad|39=2|54=2|55=IBM|150=F|151=0|10=195|8=FIX.4.4|9=166|35=8|34=106|49=EXEC_SERVER|52=20260402-11:46:11.278|56=MINIFIX_CLIENT|6=0|11=STRESS_75|14=0|17=EXEC_1775130371278|37=GEN_1775130371278|39=0|54=1|55=IBM|150=0|151=500|10=188|8=FIX.4.4|9=173|35=8|34=107|49=EXEC_SERVER|52=20260402-11:46:11.280|56=MINIFIX_CLIENT|6=101|11=STRESS_76|14=100|17=EXEC-16514147|31=101|32=100|37=ORD_09858850|39=2|54=1|55=GOOG|150=F|151=0|10=192|8=FIX.4.4|9=167|35=8|34=108|49=EXEC_SERVER|52=20260402-11:46:11.280|56=MINIFIX_CLIENT|6=0|11=STRESS_76|14=0|17=EXEC_1775130371280|37=GEN_1775130371280|39=0|54=2|55=GOOG|150=0|151=100|10=252|8=FIX.4.4|9=167|35=8|34=109|49=EXEC_SERVER|52=20260402-11:46:11.283|56=MINIFIX_CLIENT|6=0|11=STRESS_77|14=0|17=EXEC_1775130371283|37=GEN_1775130371283|39=0|54=1|55=MSFT|150=0|151=200|10=021|8=FIX.4.4|9=166|35=8|34=110|49=EXEC_SERVER|52=20260402-11:46:11.286|56=MINIFIX_CLIENT|6=0|11=STRESS_78|14=0|17=EXEC_1775130371286|37=GEN_1775130371286|39=0|54=2|55=IBM|150=0|151=500|10=184|8=FIX.4.4|9=173|35=8|34=111|49=EXEC_SERVER|52=20260402-11:46:11.288|56=MINIFIX_CLIENT|6=103|11=STRESS_79|14=100|17=EXEC-d7309ae0|31=103|32=100|37=ORD_4ba34c91|39=2|54=2|55=GOOG|150=F|151=0|10=219|8=FIX.4.4|9=167|35=8|34=112|49=EXEC_SERVER|52=20260402-11:46:11.289|56=MINIFIX_CLIENT|6=0|11=STRESS_79|14=0|17=EXEC_1775130371289|37=GEN_1775130371289|39=0|54=1|55=GOOG|150=0|151=100|10=020|8=FIX.4.4|9=167|35=8|34=113|49=EXEC_SERVER|52=20260402-11:46:11.291|56=MINIFIX_CLIENT|6=0|11=STRESS_80|14=0|17=EXEC_1775130371291|37=GEN_1775130371291|39=0|54=2|55=MSFT|150=0|151=200|10=008|8=FIX.4.4|9=166|35=8|34=114|49=EXEC_SERVER|52=20260402-11:46:11.293|56=MINIFIX_CLIENT|6=0|11=STRESS_81|14=0|17=EXEC_1775130371293|37=GEN_1775130371293|39=0|54=1|55=IBM|150=0|151=500|10=175|8=FIX.4.4|9=167|35=8|34=115|49=EXEC_SERVER|52=20260402-11:46:11.295|56=MINIFIX_CLIENT|6=0|11=STRESS_82|14=0|17=EXEC_1775130371295|37=GEN_1775130371295|39=0|54=2|55=GOOG|150=0|151=100|10=009|8=FIX.4.4|9=173|35=8|34=116|49=EXEC_SERVER|52=20260402-11:46:11.297|56=MINIFIX_CLIENT|6=102|11=STRESS_83|14=200|17=EXEC-7fd89ab0|31=102|32=200|37=ORD_7db5103c|39=2|54=2|55=MSFT|150=F|151=0|10=031|8=FIX.4.4|9=167|35=8|34=117|49=EXEC_SERVER|52=20260402-11:46:11.298|56=MINIFIX_CLIENT|6=0|11=STRESS_83|14=0|17=EXEC_1775130371298|37=GEN_1775130371298|39=0|54=1|55=MSFT|150=0|151=200|10=035|8=FIX.4.4|9=166|35=8|34=118|49=EXEC_SERVER|52=20260402-11:46:11.301|56=MINIFIX_CLIENT|6=0|11=STRESS_84|14=0|17=EXEC_1775130371301|37=GEN_1775130371301|39=0|54=2|55=IBM|150=0|151=500|10=153|8=FIX.4.4|9=173|35=8|34=119|49=EXEC_SERVER|52=20260402-11:46:11.304|56=MINIFIX_CLIENT|6=101|11=STRESS_85|14=100|17=EXEC-05541b55|31=101|32=100|37=ORD_b06e7f03|39=2|54=2|55=GOOG|150=F|151=0|10=113|8=FIX.4.4|9=167|35=8|34=120|49=EXEC_SERVER|52=20260402-11:46:11.304|56=MINIFIX_CLIENT|6=0|11=STRESS_85|14=0|17=EXEC_1775130371304|37=GEN_1775130371304|39=0|54=1|55=GOOG|150=0|151=100|10=236|8=FIX.4.4|9=173|35=8|34=121|49=EXEC_SERVER|52=20260402-11:46:11.306|56=MINIFIX_CLIENT|6=101|11=STRESS_86|14=200|17=EXEC-3eef3664|31=101|32=200|37=ORD_2f99a907|39=2|54=1|55=MSFT|150=F|151=0|10=197|8=FIX.4.4|9=167|35=8|34=122|49=EXEC_SERVER|52=20260402-11:46:11.307|56=MINIFIX_CLIENT|6=0|11=STRESS_86|14=0|17=EXEC_1775130371307|37=GEN_1775130371307|39=0|54=2|55=MSFT|150=0|151=200|10=008|8=FIX.4.4|9=166|35=8|34=123|49=EXEC_SERVER|52=20260402-11:46:11.309|56=MINIFIX_CLIENT|6=0|11=STRESS_87|14=0|17=EXEC_1775130371309|37=GEN_1775130371309|39=0|54=1|55=IBM|150=0|151=500|10=175|8=FIX.4.4|9=167|35=8|34=124|49=EXEC_SERVER|52=20260402-11:46:11.312|56=MINIFIX_CLIENT|6=0|11=STRESS_88|14=0|17=EXEC_1775130371312|37=GEN_1775130371312|39=0|54=2|55=GOOG|150=0|151=100|10=241|8=FIX.4.4|9=173|35=8|34=125|49=EXEC_SERVER|52=20260402-11:46:11.315|56=MINIFIX_CLIENT|6=103|11=STRESS_89|14=200|17=EXEC-8b2eab4f|31=103|32=200|37=ORD_8d952d66|39=2|54=2|55=MSFT|150=F|151=0|10=042|8=FIX.4.4|9=167|35=8|34=126|49=EXEC_SERVER|52=20260402-11:46:11.315|56=MINIFIX_CLIENT|6=0|11=STRESS_89|14=0|17=EXEC_1775130371315|37=GEN_1775130371315|39=0|54=1|55=MSFT|150=0|151=200|10=011|8=FIX.4.4|9=166|35=8|34=127|49=EXEC_SERVER|52=20260402-11:46:11.317|56=MINIFIX_CLIENT|6=0|11=STRESS_90|14=0|17=EXEC_1775130371317|37=GEN_1775130371317|39=0|54=2|55=IBM|150=0|151=500|10=171|8=FIX.4.4|9=167|35=8|34=128|49=EXEC_SERVER|52=20260402-11:46:11.320|56=MINIFIX_CLIENT|6=0|11=STRESS_91|14=0|17=EXEC_1775130371320|37=GEN_1775130371320|39=0|54=1|55=GOOG|150=0|151=100|10=235|8=FIX.4.4|9=167|35=8|34=129|49=EXEC_SERVER|52=20260402-11:46:11.322|56=MINIFIX_CLIENT|6=0|11=STRESS_92|14=0|17=EXEC_1775130371322|37=GEN_1775130371322|39=0|54=2|55=MSFT|150=0|151=200|10=003|8=FIX.4.4|9=172|35=8|34=130|49=EXEC_SERVER|52=20260402-11:46:11.324|56=MINIFIX_CLIENT|6=102|11=STRESS_93|14=500|17=EXEC-c3621761|31=102|32=500|37=ORD_369e7abd|39=2|54=2|55=IBM|150=F|151=0|10=090|8=FIX.4.4|9=166|35=8|34=131|49=EXEC_SERVER|52=20260402-11:46:11.325|56=MINIFIX_CLIENT|6=0|11=STRESS_93|14=0|17=EXEC_1775130371325|37=GEN_1775130371325|39=0|54=1|55=IBM|150=0|151=500|10=165|8=FIX.4.4|9=167|35=8|34=132|49=EXEC_SERVER|52=20260402-11:46:11.328|56=MINIFIX_CLIENT|6=0|11=STRESS_94|14=0|17=EXEC_1775130371328|37=GEN_1775130371328|39=0|54=2|55=GOOG|150=0|151=100|10=002|8=FIX.4.4|9=173|35=8|34=133|49=EXEC_SERVER|52=20260402-11:46:11.331|56=MINIFIX_CLIENT|6=101|11=STRESS_95|14=200|17=EXEC-63ccf184|31=101|32=200|37=ORD_f8ab28fb|39=2|54=2|55=MSFT|150=F|151=0|10=075|8=FIX.4.4|9=167|35=8|34=134|49=EXEC_SERVER|52=20260402-11:46:11.332|56=MINIFIX_CLIENT|6=0|11=STRESS_95|14=0|17=EXEC_1775130371332|37=GEN_1775130371332|39=0|54=1|55=MSFT|150=0|151=200|10=004|8=FIX.4.4|9=172|35=8|34=135|49=EXEC_SERVER|52=20260402-11:46:11.335|56=MINIFIX_CLIENT|6=101|11=STRESS_96|14=500|17=EXEC-d630a867|31=101|32=500|37=ORD_c88ca7dd|39=2|54=1|55=IBM|150=F|151=0|10=200|8=FIX.4.4|9=166|35=8|34=136|49=EXEC_SERVER|52=20260402-11:46:11.336|56=MINIFIX_CLIENT|6=0|11=STRESS_96|14=0|17=EXEC_1775130371336|37=GEN_1775130371336|39=0|54=2|55=IBM|150=0|151=500|10=180|8=FIX.4.4|9=167|35=8|34=137|49=EXEC_SERVER|52=20260402-11:46:11.338|56=MINIFIX_CLIENT|6=0|11=STRESS_97|14=0|17=EXEC_1775130371338|37=GEN_1775130371338|39=0|54=1|55=GOOG|150=0|151=100|10=012|8=FIX.4.4|9=167|35=8|34=138|49=EXEC_SERVER|52=20260402-11:46:11.340|56=MINIFIX_CLIENT|6=0|11=STRESS_98|14=0|17=EXEC_1775130371340|37=GEN_1775130371340|39=0|54=2|55=MSFT|150=0|151=200|10=009|8=FIX.4.4|9=172|35=8|34=139|49=EXEC_SERVER|52=20260402-11:46:11.342|56=MINIFIX_CLIENT|6=103|11=STRESS_99|14=500|17=EXEC-2c0b7ab0|31=103|32=500|37=ORD_fa8f4d49|39=2|54=2|55=IBM|150=F|151=0|10=244|8=FIX.4.4|9=166|35=8|34=140|49=EXEC_SERVER|52=20260402-11:46:11.343|56=MINIFIX_CLIENT|6=0|11=STRESS_99|14=0|17=EXEC_1775130371343|37=GEN_1775130371343|39=0|54=1|55=IBM|150=0|151=500|10=171|8=FIX.4.4|9=168|35=8|34=141|49=EXEC_SERVER|52=20260402-11:46:11.345|56=MINIFIX_CLIENT|6=0|11=STRESS_100|14=0|17=EXEC_1775130371345|37=GEN_1775130371345|39=0|54=2|55=GOOG|150=0|151=100|10=036|8=FIX.4.4|9=168|35=8|34=142|49=EXEC_SERVER|52=20260402-11:46:11.347|56=MINIFIX_CLIENT|6=0|11=STRESS_101|14=0|17=EXEC_1775130371347|37=GEN_1775130371347|39=0|54=1|55=MSFT|150=0|151=200|10=058|8=FIX.4.4|9=167|35=8|34=143|49=EXEC_SERVER|52=20260402-11:46:11.349|56=MINIFIX_CLIENT|6=0|11=STRESS_102|14=0|17=EXEC_1775130371349|37=GEN_1775130371349|39=0|54=2|55=IBM|150=0|151=500|10=227|8=FIX.4.4|9=174|35=8|34=144|49=EXEC_SERVER|52=20260402-11:46:11.352|56=MINIFIX_CLIENT|6=102|11=STRESS_103|14=100|17=EXEC-15318925|31=102|32=100|37=ORD_e9bd0096|39=2|54=2|55=GOOG|150=F|151=0|10=121|8=FIX.4.4|9=168|35=8|34=145|49=EXEC_SERVER|52=20260402-11:46:11.353|56=MINIFIX_CLIENT|6=0|11=STRESS_103|14=0|17=EXEC_1775130371353|37=GEN_1775130371353|39=0|54=1|55=GOOG|150=0|151=100|10=039|8=FIX.4.4|9=168|35=8|34=146|49=EXEC_SERVER|52=20260402-11:46:11.356|56=MINIFIX_CLIENT|6=0|11=STRESS_104|14=0|17=EXEC_1775130371356|37=GEN_1775130371356|39=0|54=2|55=MSFT|150=0|151=200|10=066|8=FIX.4.4|9=173|35=8|34=147|49=EXEC_SERVER|52=20260402-11:46:11.360|56=MINIFIX_CLIENT|6=101|11=STRESS_105|14=500|17=EXEC-9fa7b552|31=101|32=500|37=ORD_03606239|39=2|54=2|55=IBM|150=F|151=0|10=043|8=FIX.4.4|9=167|35=8|34=148|49=EXEC_SERVER|52=20260402-11:46:11.362|56=MINIFIX_CLIENT|6=0|11=STRESS_105|14=0|17=EXEC_1775130371362|37=GEN_1775130371362|39=0|54=1|55=IBM|150=0|151=500|10=219|8=FIX.4.4|9=174|35=8|34=149|49=EXEC_SERVER|52=20260402-11:46:11.364|56=MINIFIX_CLIENT|6=101|11=STRESS_106|14=100|17=EXEC-7edd5792|31=101|32=100|37=ORD_610fd346|39=2|54=1|55=GOOG|150=F|151=0|10=229|8=FIX.4.4|9=168|35=8|34=150|49=EXEC_SERVER|52=20260402-11:46:11.366|56=MINIFIX_CLIENT|6=0|11=STRESS_106|14=0|17=EXEC_1775130371366|37=GEN_1775130371366|39=0|54=2|55=GOOG|150=0|151=100|10=051|8=FIX.4.4|9=168|35=8|34=151|49=EXEC_SERVER|52=20260402-11:46:11.369|56=MINIFIX_CLIENT|6=0|11=STRESS_107|14=0|17=EXEC_1775130371369|37=GEN_1775130371369|39=0|54=1|55=MSFT|150=0|151=200|10=076|8=FIX.4.4|9=167|35=8|34=152|49=EXEC_SERVER|52=20260402-11:46:11.371|56=MINIFIX_CLIENT|6=0|11=STRESS_108|14=0|17=EXEC_1775130371371|37=GEN_1775130371371|39=0|54=2|55=IBM|150=0|151=500|10=218|8=FIX.4.4|9=174|35=8|34=153|49=EXEC_SERVER|52=20260402-11:46:11.374|56=MINIFIX_CLIENT|6=103|11=STRESS_109|14=100|17=EXEC-d971ab81|31=103|32=100|37=ORD_e05750de|39=2|54=2|55=GOOG|150=F|151=0|10=016|8=FIX.4.4|9=168|35=8|34=154|49=EXEC_SERVER|52=20260402-11:46:11.374|56=MINIFIX_CLIENT|6=0|11=STRESS_109|14=0|17=EXEC_1775130371374|37=GEN_1775130371374|39=0|54=1|55=GOOG|150=0|151=100|10=054|8=FIX.4.4|9=168|35=8|34=155|49=EXEC_SERVER|52=20260402-11:46:11.377|56=MINIFIX_CLIENT|6=0|11=STRESS_110|14=0|17=EXEC_1775130371377|37=GEN_1775130371377|39=0|54=2|55=MSFT|150=0|151=200|10=072|8=FIX.4.4|9=167|35=8|34=156|49=EXEC_SERVER|52=20260402-11:46:11.379|56=MINIFIX_CLIENT|6=0|11=STRESS_111|14=0|17=EXEC_1775130371379|37=GEN_1775130371379|39=0|54=1|55=IBM|150=0|151=500|10=239|8=FIX.4.4|9=168|35=8|34=157|49=EXEC_SERVER|52=20260402-11:46:11.381|56=MINIFIX_CLIENT|6=0|11=STRESS_112|14=0|17=EXEC_1775130371381|37=GEN_1775130371381|39=0|54=2|55=GOOG|150=0|151=100|10=046|8=FIX.4.4|9=174|35=8|34=158|49=EXEC_SERVER|52=20260402-11:46:11.384|56=MINIFIX_CLIENT|6=102|11=STRESS_113|14=200|17=EXEC-ab1da231|31=102|32=200|37=ORD_7997e266|39=2|54=2|55=MSFT|150=F|151=0|10=241|8=FIX.4.4|9=168|35=8|34=159|49=EXEC_SERVER|52=20260402-11:46:11.384|56=MINIFIX_CLIENT|6=0|11=STRESS_113|14=0|17=EXEC_1775130371384|37=GEN_1775130371384|39=0|54=1|55=MSFT|150=0|151=200|10=072|8=FIX.4.4|9=167|35=8|34=160|49=EXEC_SERVER|52=20260402-11:46:11.387|56=MINIFIX_CLIENT|6=0|11=STRESS_114|14=0|17=EXEC_1775130371387|37=GEN_1775130371387|39=0|54=2|55=IBM|150=0|151=500|10=235|8=FIX.4.4|9=174|35=8|34=161|49=EXEC_SERVER|52=20260402-11:46:11.390|56=MINIFIX_CLIENT|6=101|11=STRESS_115|14=100|17=EXEC-a1676922|31=101|32=100|37=ORD_b5c2d9b1|39=2|54=2|55=GOOG|150=F|151=0|10=212|8=FIX.4.4|9=168|35=8|34=162|49=EXEC_SERVER|52=20260402-11:46:11.390|56=MINIFIX_CLIENT|6=0|11=STRESS_115|14=0|17=EXEC_1775130371390|37=GEN_1775130371390|39=0|54=1|55=GOOG|150=0|151=100|10=044|8=FIX.4.4|9=174|35=8|34=163|49=EXEC_SERVER|52=20260402-11:46:11.393|56=MINIFIX_CLIENT|6=101|11=STRESS_116|14=200|17=EXEC-ee5f1ee9|31=101|32=200|37=ORD_182ba02f|39=2|54=1|55=MSFT|150=F|151=0|10=122|8=FIX.4.4|9=168|35=8|34=164|49=EXEC_SERVER|52=20260402-11:46:11.393|56=MINIFIX_CLIENT|6=0|11=STRESS_116|14=0|17=EXEC_1775130371393|37=GEN_1775130371393|39=0|54=2|55=MSFT|150=0|151=200|10=072|8=FIX.4.4|9=167|35=8|34=165|49=EXEC_SERVER|52=20260402-11:46:11.396|56=MINIFIX_CLIENT|6=0|11=STRESS_117|14=0|17=EXEC_1775130371396|37=GEN_1775130371396|39=0|54=1|55=IBM|150=0|151=500|10=242|8=FIX.4.4|9=168|35=8|34=166|49=EXEC_SERVER|52=20260402-11:46:11.398|56=MINIFIX_CLIENT|6=0|11=STRESS_118|14=0|17=EXEC_1775130371398|37=GEN_1775130371398|39=0|54=2|55=GOOG|150=0|151=100|10=076|8=FIX.4.4|9=174|35=8|34=167|49=EXEC_SERVER|52=20260402-11:46:11.402|56=MINIFIX_CLIENT|6=103|11=STRESS_119|14=200|17=EXEC-1adfac43|31=103|32=200|37=ORD_8788958f|39=2|54=2|55=MSFT|150=F|151=0|10=048|8=FIX.4.4|9=168|35=8|34=168|49=EXEC_SERVER|52=20260402-11:46:11.403|56=MINIFIX_CLIENT|6=0|11=STRESS_119|14=0|17=EXEC_1775130371403|37=GEN_1775130371403|39=0|54=1|55=MSFT|150=0|151=200|10=054|8=FIX.4.4|9=167|35=8|34=169|49=EXEC_SERVER|52=20260402-11:46:11.406|56=MINIFIX_CLIENT|6=0|11=STRESS_120|14=0|17=EXEC_1775130371406|37=GEN_1775130371406|39=0|54=2|55=IBM|150=0|151=500|10=217|8=FIX.4.4|9=168|35=8|34=170|49=EXEC_SERVER|52=20260402-11:46:11.408|56=MINIFIX_CLIENT|6=0|11=STRESS_121|14=0|17=EXEC_1775130371408|37=GEN_1775130371408|39=0|54=1|55=GOOG|150=0|151=100|10=040|8=FIX.4.4|9=168|35=8|34=171|49=EXEC_SERVER|52=20260402-11:46:11.411|56=MINIFIX_CLIENT|6=0|11=STRESS_122|14=0|17=EXEC_1775130371411|37=GEN_1775130371411|39=0|54=2|55=MSFT|150=0|151=200|10=040|8=FIX.4.4|9=173|35=8|34=172|49=EXEC_SERVER|52=20260402-11:46:11.414|56=MINIFIX_CLIENT|6=102|11=STRESS_123|14=500|17=EXEC-b464cf34|31=102|32=500|37=ORD_a6c279bb|39=2|54=2|55=IBM|150=F|151=0|10=233|8=FIX.4.4|9=167|35=8|34=173|49=EXEC_SERVER|52=20260402-11:46:11.415|56=MINIFIX_CLIENT|6=0|11=STRESS_123|14=0|17=EXEC_1775130371415|37=GEN_1775130371415|39=0|54=1|55=IBM|150=0|151=500|10=214|8=FIX.4.4|9=168|35=8|34=174|49=EXEC_SERVER|52=20260402-11:46:11.418|56=MINIFIX_CLIENT|6=0|11=STRESS_124|14=0|17=EXEC_1775130371418|37=GEN_1775130371418|39=0|54=2|55=GOOG|150=0|151=100|10=051|8=FIX.4.4|9=174|35=8|34=175|49=EXEC_SERVER|52=20260402-11:46:11.420|56=MINIFIX_CLIENT|6=101|11=STRESS_125|14=200|17=EXEC-43de2cfc|31=101|32=200|37=ORD_69c0d0eb|39=2|54=2|55=MSFT|150=F|151=0|10=161|8=FIX.4.4|9=168|35=8|34=176|49=EXEC_SERVER|52=20260402-11:46:11.422|56=MINIFIX_CLIENT|6=0|11=STRESS_125|14=0|17=EXEC_1775130371422|37=GEN_1775130371422|39=0|54=1|55=MSFT|150=0|151=200|10=053|8=FIX.4.4|9=173|35=8|34=177|49=EXEC_SERVER|52=20260402-11:46:11.424|56=MINIFIX_CLIENT|6=101|11=STRESS_126|14=500|17=EXEC-b2179f5b|31=101|32=500|37=ORD_312444b8|39=2|54=1|55=IBM|150=F|151=0|10=093|8=FIX.4.4|9=167|35=8|34=178|49=EXEC_SERVER|52=20260402-11:46:11.424|56=MINIFIX_CLIENT|6=0|11=STRESS_126|14=0|17=EXEC_1775130371424|37=GEN_1775130371424|39=0|54=2|55=IBM|150=0|151=500|10=223|8=FIX.4.4|9=168|35=8|34=179|49=EXEC_SERVER|52=20260402-11:46:11.427|56=MINIFIX_CLIENT|6=0|11=STRESS_127|14=0|17=EXEC_1775130371427|37=GEN_1775130371427|39=0|54=1|55=GOOG|150=0|151=100|10=058|8=FIX.4.4|9=168|35=8|34=180|49=EXEC_SERVER|52=20260402-11:46:11.429|56=MINIFIX_CLIENT|6=0|11=STRESS_128|14=0|17=EXEC_1775130371429|37=GEN_1775130371429|39=0|54=2|55=MSFT|150=0|151=200|10=073|8=FIX.4.4|9=173|35=8|34=181|49=EXEC_SERVER|52=20260402-11:46:11.432|56=MINIFIX_CLIENT|6=103|11=STRESS_129|14=500|17=EXEC-4bf7f684|31=103|32=500|37=ORD_bc7629af|39=2|54=2|55=IBM|150=F|151=0|10=000|8=FIX.4.4|9=167|35=8|34=182|49=EXEC_SERVER|52=20260402-11:46:11.433|56=MINIFIX_CLIENT|6=0|11=STRESS_129|14=0|17=EXEC_1775130371433|37=GEN_1775130371433|39=0|54=1|55=IBM|150=0|151=500|10=220|8=FIX.4.4|9=168|35=8|34=183|49=EXEC_SERVER|52=20260402-11:46:11.436|56=MINIFIX_CLIENT|6=0|11=STRESS_130|14=0|17=EXEC_1775130371436|37=GEN_1775130371436|39=0|54=2|55=GOOG|150=0|151=100|10=048|8=FIX.4.4|9=168|35=8|34=184|49=EXEC_SERVER|52=20260402-11:46:11.438|56=MINIFIX_CLIENT|6=0|11=STRESS_131|14=0|17=EXEC_1775130371438|37=GEN_1775130371438|39=0|54=1|55=MSFT|150=0|151=200|10=070|8=FIX.4.4|9=167|35=8|34=185|49=EXEC_SERVER|52=20260402-11:46:11.440|56=MINIFIX_CLIENT|6=0|11=STRESS_132|14=0|17=EXEC_1775130371440|37=GEN_1775130371440|39=0|54=2|55=IBM|150=0|151=500|10=212|8=FIX.4.4|9=174|35=8|34=186|49=EXEC_SERVER|52=20260402-11:46:11.443|56=MINIFIX_CLIENT|6=102|11=STRESS_133|14=100|17=EXEC-0b8c02d2|31=102|32=100|37=ORD_99ee6c3e|39=2|54=2|55=GOOG|150=F|151=0|10=064|8=FIX.4.4|9=168|35=8|34=187|49=EXEC_SERVER|52=20260402-11:46:11.443|56=MINIFIX_CLIENT|6=0|11=STRESS_133|14=0|17=EXEC_1775130371443|37=GEN_1775130371443|39=0|54=1|55=GOOG|150=0|151=100|10=048|8=FIX.4.4|9=168|35=8|34=188|49=EXEC_SERVER|52=20260402-11:46:11.446|56=MINIFIX_CLIENT|6=0|11=STRESS_134|14=0|17=EXEC_1775130371446|37=GEN_1775130371446|39=0|54=2|55=MSFT|150=0|151=200|10=075|8=FIX.4.4|9=173|35=8|34=189|49=EXEC_SERVER|52=20260402-11:46:11.449|56=MINIFIX_CLIENT|6=101|11=STRESS_135|14=500|17=EXEC-0f7c3a67|31=101|32=500|37=ORD_eaa1b21c|39=2|54=2|55=IBM|150=F|151=0|10=027|8=FIX.4.4|9=167|35=8|34=190|49=EXEC_SERVER|52=20260402-11:46:11.449|56=MINIFIX_CLIENT|6=0|11=STRESS_135|14=0|17=EXEC_1775130371449|37=GEN_1775130371449|39=0|54=1|55=IBM|150=0|151=500|10=237|8=FIX.4.4|9=174|35=8|34=191|49=EXEC_SERVER|52=20260402-11:46:11.451|56=MINIFIX_CLIENT|6=101|11=STRESS_136|14=100|17=EXEC-f46d7b73|31=101|32=100|37=ORD_11201d3b|39=2|54=1|55=GOOG|150=F|151=0|10=206|8=FIX.4.4|9=168|35=8|34=192|49=EXEC_SERVER|52=20260402-11:46:11.453|56=MINIFIX_CLIENT|6=0|11=STRESS_136|14=0|17=EXEC_1775130371453|37=GEN_1775130371453|39=0|54=2|55=GOOG|150=0|151=100|10=051|8=FIX.4.4|9=168|35=8|34=193|49=EXEC_SERVER|52=20260402-11:46:11.455|56=MINIFIX_CLIENT|6=0|11=STRESS_137|14=0|17=EXEC_1775130371455|37=GEN_1775130371455|39=0|54=1|55=MSFT|150=0|151=200|10=073|8=FIX.4.4|9=167|35=8|34=194|49=EXEC_SERVER|52=20260402-11:46:11.458|56=MINIFIX_CLIENT|6=0|11=STRESS_138|14=0|17=EXEC_1775130371458|37=GEN_1775130371458|39=0|54=2|55=IBM|150=0|151=500|10=245|8=FIX.4.4|9=174|35=8|34=195|49=EXEC_SERVER|52=20260402-11:46:11.460|56=MINIFIX_CLIENT|6=103|11=STRESS_139|14=100|17=EXEC-ec40d671|31=103|32=100|37=ORD_fabb5a6d|39=2|54=2|55=GOOG|150=F|151=0|10=158|8=FIX.4.4|9=168|35=8|34=196|49=EXEC_SERVER|52=20260402-11:46:11.461|56=MINIFIX_CLIENT|6=0|11=STRESS_139|14=0|17=EXEC_1775130371461|37=GEN_1775130371461|39=0|54=1|55=GOOG|150=0|151=100|10=054|8=FIX.4.4|9=168|35=8|34=197|49=EXEC_SERVER|52=20260402-11:46:11.463|56=MINIFIX_CLIENT|6=0|11=STRESS_140|14=0|17=EXEC_1775130371463|37=GEN_1775130371463|39=0|54=2|55=MSFT|150=0|151=200|10=069|8=FIX.4.4|9=167|35=8|34=198|49=EXEC_SERVER|52=20260402-11:46:11.465|56=MINIFIX_CLIENT|6=0|11=STRESS_141|14=0|17=EXEC_1775130371465|37=GEN_1775130371465|39=0|54=1|55=IBM|150=0|151=500|10=236|8=FIX.4.4|9=168|35=8|34=199|49=EXEC_SERVER|52=20260402-11:46:11.467|56=MINIFIX_CLIENT|6=0|11=STRESS_142|14=0|17=EXEC_1775130371467|37=GEN_1775130371467|39=0|54=2|55=GOOG|150=0|151=100|10=070|8=FIX.4.4|9=174|35=8|34=200|49=EXEC_SERVER|52=20260402-11:46:11.470|56=MINIFIX_CLIENT|6=102|11=STRESS_143|14=200|17=EXEC-e112cc8f|31=102|32=200|37=ORD_5cd3feed|39=2|54=2|55=MSFT|150=F|151=0|10=210|8=FIX.4.4|9=168|35=8|34=201|49=EXEC_SERVER|52=20260402-11:46:11.471|56=MINIFIX_CLIENT|6=0|11=STRESS_143|14=0|17=EXEC_1775130371471|37=GEN_1775130371471|39=0|54=1|55=MSFT|150=0|151=200|10=054|8=FIX.4.4|9=167|35=8|34=202|49=EXEC_SERVER|52=20260402-11:46:11.473|56=MINIFIX_CLIENT|6=0|11=STRESS_144|14=0|17=EXEC_1775130371473|37=GEN_1775130371473|39=0|54=2|55=IBM|150=0|151=500|10=223|8=FIX.4.4|9=174|35=8|34=203|49=EXEC_SERVER|52=20260402-11:46:11.476|56=MINIFIX_CLIENT|6=101|11=STRESS_145|14=100|17=EXEC-bb991b8a|31=101|32=100|37=ORD_729021d0|39=2|54=2|55=GOOG|150=F|151=0|10=214|8=FIX.4.4|9=168|35=8|34=204|49=EXEC_SERVER|52=20260402-11:46:11.477|56=MINIFIX_CLIENT|6=0|11=STRESS_145|14=0|17=EXEC_1775130371477|37=GEN_1775130371477|39=0|54=1|55=GOOG|150=0|151=100|10=062|8=FIX.4.4|9=174|35=8|34=205|49=EXEC_SERVER|52=20260402-11:46:11.478|56=MINIFIX_CLIENT|6=101|11=STRESS_146|14=200|17=EXEC-ca9ccc34|31=101|32=200|37=ORD_b8cd9a9a|39=2|54=1|55=MSFT|150=F|151=0|10=225|8=FIX.4.4|9=168|35=8|34=206|49=EXEC_SERVER|52=20260402-11:46:11.479|56=MINIFIX_CLIENT|6=0|11=STRESS_146|14=0|17=EXEC_1775130371479|37=GEN_1775130371479|39=0|54=2|55=MSFT|150=0|151=200|10=087|8=FIX.4.4|9=167|35=8|34=207|49=EXEC_SERVER|52=20260402-11:46:11.482|56=MINIFIX_CLIENT|6=0|11=STRESS_147|14=0|17=EXEC_1775130371481|37=GEN_1775130371481|39=0|54=1|55=IBM|150=0|151=500|10=228|8=FIX.4.4|9=168|35=8|34=208|49=EXEC_SERVER|52=20260402-11:46:11.483|56=MINIFIX_CLIENT|6=0|11=STRESS_148|14=0|17=EXEC_1775130371483|37=GEN_1775130371483|39=0|54=2|55=GOOG|150=0|151=100|10=061|8=FIX.4.4|9=174|35=8|34=209|49=EXEC_SERVER|52=20260402-11:46:11.486|56=MINIFIX_CLIENT|6=103|11=STRESS_149|14=200|17=EXEC-3cc3b2c8|31=103|32=200|37=ORD_93cfdd78|39=2|54=2|55=MSFT|150=F|151=0|10=145|8=FIX.4.4|9=168|35=8|34=210|49=EXEC_SERVER|52=20260402-11:46:11.487|56=MINIFIX_CLIENT|6=0|11=STRESS_149|14=0|17=EXEC_1775130371487|37=GEN_1775130371487|39=0|54=1|55=MSFT|150=0|151=200|10=081|8=FIX.4.4|9=167|35=8|34=211|49=EXEC_SERVER|52=20260402-11:46:11.489|56=MINIFIX_CLIENT|6=0|11=STRESS_150|14=0|17=EXEC_1775130371489|37=GEN_1775130371489|39=0|54=2|55=IBM|150=0|151=500|10=241|8=FIX.4.4|9=168|35=8|34=212|49=EXEC_SERVER|52=20260402-11:46:11.491|56=MINIFIX_CLIENT|6=0|11=STRESS_151|14=0|17=EXEC_1775130371491|37=GEN_1775130371491|39=0|54=1|55=GOOG|150=0|151=100|10=046|8=FIX.4.4|9=168|35=8|34=213|49=EXEC_SERVER|52=20260402-11:46:11.494|56=MINIFIX_CLIENT|6=0|11=STRESS_152|14=0|17=EXEC_1775130371494|37=GEN_1775130371494|39=0|54=2|55=MSFT|150=0|151=200|10=073|8=FIX.4.4|9=173|35=8|34=214|49=EXEC_SERVER|52=20260402-11:46:11.497|56=MINIFIX_CLIENT|6=102|11=STRESS_153|14=500|17=EXEC-c6d078e0|31=102|32=500|37=ORD_cf3e0c92|39=2|54=2|55=IBM|150=F|151=0|10=244|8=FIX.4.4|9=167|35=8|34=215|49=EXEC_SERVER|52=20260402-11:46:11.498|56=MINIFIX_CLIENT|6=0|11=STRESS_153|14=0|17=EXEC_1775130371498|37=GEN_1775130371498|39=0|54=1|55=IBM|150=0|151=500|10=247|8=FIX.4.4|9=168|35=8|34=216|49=EXEC_SERVER|52=20260402-11:46:11.500|56=MINIFIX_CLIENT|6=0|11=STRESS_154|14=0|17=EXEC_1775130371500|37=GEN_1775130371500|39=0|54=2|55=GOOG|150=0|151=100|10=027|8=FIX.4.4|9=174|35=8|34=217|49=EXEC_SERVER|52=20260402-11:46:11.502|56=MINIFIX_CLIENT|6=101|11=STRESS_155|14=200|17=EXEC-b5893e30|31=101|32=200|37=ORD_4c76682b|39=2|54=2|55=MSFT|150=F|151=0|10=192|8=FIX.4.4|9=168|35=8|34=218|49=EXEC_SERVER|52=20260402-11:46:11.503|56=MINIFIX_CLIENT|6=0|11=STRESS_155|14=0|17=EXEC_1775130371503|37=GEN_1775130371503|39=0|54=1|55=MSFT|150=0|151=200|10=053|8=FIX.4.4|9=173|35=8|34=219|49=EXEC_SERVER|52=20260402-11:46:11.505|56=MINIFIX_CLIENT|6=101|11=STRESS_156|14=500|17=EXEC-804d86b5|31=101|32=500|37=ORD_29905600|39=2|54=1|55=IBM|150=F|151=0|10=003|8=FIX.4.4|9=167|35=8|34=220|49=EXEC_SERVER|52=20260402-11:46:11.506|56=MINIFIX_CLIENT|6=0|11=STRESS_156|14=0|17=EXEC_1775130371506|37=GEN_1775130371506|39=0|54=2|55=IBM|150=0|151=500|10=217|8=FIX.4.4|9=168|35=8|34=221|49=EXEC_SERVER|52=20260402-11:46:11.509|56=MINIFIX_CLIENT|6=0|11=STRESS_157|14=0|17=EXEC_1775130371509|37=GEN_1775130371509|39=0|54=1|55=GOOG|150=0|151=100|10=052|8=FIX.4.4|9=168|35=8|34=222|49=EXEC_SERVER|52=20260402-11:46:11.512|56=MINIFIX_CLIENT|6=0|11=STRESS_158|14=0|17=EXEC_1775130371512|37=GEN_1775130371512|39=0|54=2|55=MSFT|150=0|151=200|10=052|8=FIX.4.4|9=173|35=8|34=223|49=EXEC_SERVER|52=20260402-11:46:11.514|56=MINIFIX_CLIENT|6=103|11=STRESS_159|14=500|17=EXEC-a074f51c|31=103|32=500|37=ORD_9b626dc4|39=2|54=2|55=IBM|150=F|151=0|10=193|8=FIX.4.4|9=167|35=8|34=224|49=EXEC_SERVER|52=20260402-11:46:11.515|56=MINIFIX_CLIENT|6=0|11=STRESS_159|14=0|17=EXEC_1775130371515|37=GEN_1775130371515|39=0|54=1|55=IBM|150=0|151=500|10=223|8=FIX.4.4|9=168|35=8|34=225|49=EXEC_SERVER|52=20260402-11:46:11.518|56=MINIFIX_CLIENT|6=0|11=STRESS_160|14=0|17=EXEC_1775130371518|37=GEN_1775130371518|39=0|54=2|55=GOOG|150=0|151=100|10=051|8=FIX.4.4|9=168|35=8|34=226|49=EXEC_SERVER|52=20260402-11:46:11.521|56=MINIFIX_CLIENT|6=0|11=STRESS_161|14=0|17=EXEC_1775130371521|37=GEN_1775130371521|39=0|54=1|55=MSFT|150=0|151=200|10=049|8=FIX.4.4|9=167|35=8|34=227|49=EXEC_SERVER|52=20260402-11:46:11.523|56=MINIFIX_CLIENT|6=0|11=STRESS_162|14=0|17=EXEC_1775130371523|37=GEN_1775130371523|39=0|54=2|55=IBM|150=0|151=500|10=218|8=FIX.4.4|9=174|35=8|34=228|49=EXEC_SERVER|52=20260402-11:46:11.526|56=MINIFIX_CLIENT|6=102|11=STRESS_163|14=100|17=EXEC-b307a11a|31=102|32=100|37=ORD_d441c330|39=2|54=2|55=GOOG|150=F|151=0|10=198|8=FIX.4.4|9=168|35=8|34=229|49=EXEC_SERVER|52=20260402-11:46:11.526|56=MINIFIX_CLIENT|6=0|11=STRESS_163|14=0|17=EXEC_1775130371526|37=GEN_1775130371526|39=0|54=1|55=GOOG|150=0|151=100|10=054|8=FIX.4.4|9=168|35=8|34=230|49=EXEC_SERVER|52=20260402-11:46:11.529|56=MINIFIX_CLIENT|6=0|11=STRESS_164|14=0|17=EXEC_1775130371529|37=GEN_1775130371529|39=0|54=2|55=MSFT|150=0|151=200|10=072|8=FIX.4.4|9=173|35=8|34=231|49=EXEC_SERVER|52=20260402-11:46:11.531|56=MINIFIX_CLIENT|6=101|11=STRESS_165|14=500|17=EXEC-8942b007|31=101|32=500|37=ORD_56523f8f|39=2|54=2|55=IBM|150=F|151=0|10=050|8=FIX.4.4|9=167|35=8|34=232|49=EXEC_SERVER|52=20260402-11:46:11.533|56=MINIFIX_CLIENT|6=0|11=STRESS_165|14=0|17=EXEC_1775130371533|37=GEN_1775130371533|39=0|54=1|55=IBM|150=0|151=500|10=219|8=FIX.4.4|9=174|35=8|34=233|49=EXEC_SERVER|52=20260402-11:46:11.535|56=MINIFIX_CLIENT|6=101|11=STRESS_166|14=100|17=EXEC-939a11ef|31=101|32=100|37=ORD_7c4131b4|39=2|54=1|55=GOOG|150=F|151=0|10=216|8=FIX.4.4|9=168|35=8|34=234|49=EXEC_SERVER|52=20260402-11:46:11.536|56=MINIFIX_CLIENT|6=0|11=STRESS_166|14=0|17=EXEC_1775130371536|37=GEN_1775130371536|39=0|54=2|55=GOOG|150=0|151=100|10=057|8=FIX.4.4|9=168|35=8|34=235|49=EXEC_SERVER|52=20260402-11:46:11.538|56=MINIFIX_CLIENT|6=0|11=STRESS_167|14=0|17=EXEC_1775130371538|37=GEN_1775130371538|39=0|54=1|55=MSFT|150=0|151=200|10=079|8=FIX.4.4|9=167|35=8|34=236|49=EXEC_SERVER|52=20260402-11:46:11.540|56=MINIFIX_CLIENT|6=0|11=STRESS_168|14=0|17=EXEC_1775130371540|37=GEN_1775130371540|39=0|54=2|55=IBM|150=0|151=500|10=221|8=FIX.4.4|9=174|35=8|34=237|49=EXEC_SERVER|52=20260402-11:46:11.543|56=MINIFIX_CLIENT|6=103|11=STRESS_169|14=100|17=EXEC-5430b050|31=103|32=100|37=ORD_5c9fdc60|39=2|54=2|55=GOOG|150=F|151=0|10=222|8=FIX.4.4|9=168|35=8|34=238|49=EXEC_SERVER|52=20260402-11:46:11.543|56=MINIFIX_CLIENT|6=0|11=STRESS_169|14=0|17=EXEC_1775130371543|37=GEN_1775130371543|39=0|54=1|55=GOOG|150=0|151=100|10=057|8=FIX.4.4|9=168|35=8|34=239|49=EXEC_SERVER|52=20260402-11:46:11.544|56=MINIFIX_CLIENT|6=0|11=STRESS_170|14=0|17=EXEC_1775130371544|37=GEN_1775130371544|39=0|54=2|55=MSFT|150=0|151=200|10=069|8=FIX.4.4|9=167|35=8|34=240|49=EXEC_SERVER|52=20260402-11:46:11.548|56=MINIFIX_CLIENT|6=0|11=STRESS_171|14=0|17=EXEC_1775130371547|37=GEN_1775130371547|39=0|54=1|55=IBM|150=0|151=500|10=231|8=FIX.4.4|9=168|35=8|34=241|49=EXEC_SERVER|52=20260402-11:46:11.550|56=MINIFIX_CLIENT|6=0|11=STRESS_172|14=0|17=EXEC_1775130371550|37=GEN_1775130371550|39=0|54=2|55=GOOG|150=0|151=100|10=040|8=FIX.4.4|9=174|35=8|34=242|49=EXEC_SERVER|52=20260402-11:46:11.552|56=MINIFIX_CLIENT|6=102|11=STRESS_173|14=200|17=EXEC-96018c95|31=102|32=200|37=ORD_d2a484d1|39=2|54=2|55=MSFT|150=F|151=0|10=193|8=FIX.4.4|9=168|35=8|34=243|49=EXEC_SERVER|52=20260402-11:46:11.552|56=MINIFIX_CLIENT|6=0|11=STRESS_173|14=0|17=EXEC_1775130371552|37=GEN_1775130371552|39=0|54=1|55=MSFT|150=0|151=200|10=063|8=FIX.4.4|9=167|35=8|34=244|49=EXEC_SERVER|52=20260402-11:46:11.555|56=MINIFIX_CLIENT|6=0|11=STRESS_174|14=0|17=EXEC_1775130371555|37=GEN_1775130371555|39=0|54=2|55=IBM|150=0|151=500|10=235|8=FIX.4.4|9=174|35=8|34=245|49=EXEC_SERVER|52=20260402-11:46:11.557|56=MINIFIX_CLIENT|6=101|11=STRESS_175|14=100|17=EXEC-4ff07e16|31=101|32=100|37=ORD_b7e6e8c9|39=2|54=2|55=GOOG|150=F|151=0|10=084|8=FIX.4.4|9=168|35=8|34=246|49=EXEC_SERVER|52=20260402-11:46:11.558|56=MINIFIX_CLIENT|6=0|11=STRESS_175|14=0|17=EXEC_1775130371558|37=GEN_1775130371558|39=0|54=1|55=GOOG|150=0|151=100|10=071|8=FIX.4.4|9=174|35=8|34=247|49=EXEC_SERVER|52=20260402-11:46:11.560|56=MINIFIX_CLIENT|6=101|11=STRESS_176|14=200|17=EXEC-ef3a58b5|31=101|32=200|37=ORD_0578ff49|39=2|54=1|55=MSFT|150=F|151=0|10=048|8=FIX.4.4|9=168|35=8|34=248|49=EXEC_SERVER|52=20260402-11:46:11.562|56=MINIFIX_CLIENT|6=0|11=STRESS_176|14=0|17=EXEC_1775130371562|37=GEN_1775130371562|39=0|54=2|55=MSFT|150=0|151=200|10=075|8=FIX.4.4|9=167|35=8|34=249|49=EXEC_SERVER|52=20260402-11:46:11.563|56=MINIFIX_CLIENT|6=0|11=STRESS_177|14=0|17=EXEC_1775130371563|37=GEN_1775130371563|39=0|54=1|55=IBM|150=0|151=500|10=239|8=FIX.4.4|9=168|35=8|34=250|49=EXEC_SERVER|52=20260402-11:46:11.565|56=MINIFIX_CLIENT|6=0|11=STRESS_178|14=0|17=EXEC_1775130371565|37=GEN_1775130371565|39=0|54=2|55=GOOG|150=0|151=100|10=064|8=FIX.4.4|9=174|35=8|34=251|49=EXEC_SERVER|52=20260402-11:46:11.568|56=MINIFIX_CLIENT|6=103|11=STRESS_179|14=200|17=EXEC-ba7478af|31=103|32=200|37=ORD_1f352f5e|39=2|54=2|55=MSFT|150=F|151=0|10=096|8=FIX.4.4|9=168|35=8|34=252|49=EXEC_SERVER|52=20260402-11:46:11.569|56=MINIFIX_CLIENT|6=0|11=STRESS_179|14=0|17=EXEC_1775130371569|37=GEN_1775130371569|39=0|54=1|55=MSFT|150=0|151=200|10=093|8=FIX.4.4|9=167|35=8|34=253|49=EXEC_SERVER|52=20260402-11:46:11.571|56=MINIFIX_CLIENT|6=0|11=STRESS_180|14=0|17=EXEC_1775130371571|37=GEN_1775130371571|39=0|54=2|55=IBM|150=0|151=500|10=226|8=FIX.4.4|9=168|35=8|34=254|49=EXEC_SERVER|52=20260402-11:46:11.573|56=MINIFIX_CLIENT|6=0|11=STRESS_181|14=0|17=EXEC_1775130371573|37=GEN_1775130371573|39=0|54=1|55=GOOG|150=0|151=100|10=058|8=FIX.4.4|9=168|35=8|34=255|49=EXEC_SERVER|52=20260402-11:46:11.575|56=MINIFIX_CLIENT|6=0|11=STRESS_182|14=0|17=EXEC_1775130371575|37=GEN_1775130371575|39=0|54=2|55=MSFT|150=0|151=200|10=082|8=FIX.4.4|9=173|35=8|34=256|49=EXEC_SERVER|52=20260402-11:46:11.577|56=MINIFIX_CLIENT|6=102|11=STRESS_183|14=500|17=EXEC-cfc57e98|31=102|32=500|37=ORD_70009c19|39=2|54=2|55=IBM|150=F|151=0|10=167|8=FIX.4.4|9=167|35=8|34=257|49=EXEC_SERVER|52=20260402-11:46:11.578|56=MINIFIX_CLIENT|6=0|11=STRESS_183|14=0|17=EXEC_1775130371578|37=GEN_1775130371578|39=0|54=1|55=IBM|150=0|151=500|10=253|8=FIX.4.4|9=168|35=8|34=258|49=EXEC_SERVER|52=20260402-11:46:11.581|56=MINIFIX_CLIENT|6=0|11=STRESS_184|14=0|17=EXEC_1775130371581|37=GEN_1775130371581|39=0|54=2|55=GOOG|150=0|151=100|10=063|8=FIX.4.4|9=174|35=8|34=259|49=EXEC_SERVER|52=20260402-11:46:11.584|56=MINIFIX_CLIENT|6=101|11=STRESS_185|14=200|17=EXEC-72d49bea|31=101|32=200|37=ORD_00bd19f0|39=2|54=2|55=MSFT|150=F|151=0|10=082|8=FIX.4.4|9=168|35=8|34=260|49=EXEC_SERVER|52=20260402-11:46:11.584|56=MINIFIX_CLIENT|6=0|11=STRESS_185|14=0|17=EXEC_1775130371584|37=GEN_1775130371584|39=0|54=1|55=MSFT|150=0|151=200|10=080|8=FIX.4.4|9=173|35=8|34=261|49=EXEC_SERVER|52=20260402-11:46:11.587|56=MINIFIX_CLIENT|6=101|11=STRESS_186|14=500|17=EXEC-d9a66141|31=101|32=500|37=ORD_d7e9c16c|39=2|54=1|55=IBM|150=F|151=0|10=207|8=FIX.4.4|9=167|35=8|34=262|49=EXEC_SERVER|52=20260402-11:46:11.587|56=MINIFIX_CLIENT|6=0|11=STRESS_186|14=0|17=EXEC_1775130371587|37=GEN_1775130371587|39=0|54=2|55=IBM|150=0|151=500|10=253|8=FIX.4.4|9=168|35=8|34=263|49=EXEC_SERVER|52=20260402-11:46:11.589|56=MINIFIX_CLIENT|6=0|11=STRESS_187|14=0|17=EXEC_1775130371589|37=GEN_1775130371589|39=0|54=1|55=GOOG|150=0|151=100|10=085|8=FIX.4.4|9=168|35=8|34=264|49=EXEC_SERVER|52=20260402-11:46:11.592|56=MINIFIX_CLIENT|6=0|11=STRESS_188|14=0|17=EXEC_1775130371592|37=GEN_1775130371592|39=0|54=2|55=MSFT|150=0|151=200|10=085|8=FIX.4.4|9=173|35=8|34=265|49=EXEC_SERVER|52=20260402-11:46:11.594|56=MINIFIX_CLIENT|6=103|11=STRESS_189|14=500|17=EXEC-5749aa3a|31=103|32=500|37=ORD_506f4b0c|39=2|54=2|55=IBM|150=F|151=0|10=204|8=FIX.4.4|9=167|35=8|34=266|49=EXEC_SERVER|52=20260402-11:46:11.595|56=MINIFIX_CLIENT|6=0|11=STRESS_189|14=0|17=EXEC_1775130371595|37=GEN_1775130371595|39=0|54=1|55=IBM|150=0|151=500|10=000|8=FIX.4.4|9=168|35=8|34=267|49=EXEC_SERVER|52=20260402-11:46:11.597|56=MINIFIX_CLIENT|6=0|11=STRESS_190|14=0|17=EXEC_1775130371597|37=GEN_1775130371597|39=0|54=2|55=GOOG|150=0|151=100|10=081|8=FIX.4.4|9=168|35=8|34=268|49=EXEC_SERVER|52=20260402-11:46:11.599|56=MINIFIX_CLIENT|6=0|11=STRESS_191|14=0|17=EXEC_1775130371599|37=GEN_1775130371599|39=0|54=1|55=MSFT|150=0|151=200|10=103|8=FIX.4.4|9=167|35=8|34=269|49=EXEC_SERVER|52=20260402-11:46:11.601|56=MINIFIX_CLIENT|6=0|11=STRESS_192|14=0|17=EXEC_1775130371601|37=GEN_1775130371601|39=0|54=2|55=IBM|150=0|151=500|10=218|8=FIX.4.4|9=174|35=8|34=270|49=EXEC_SERVER|52=20260402-11:46:11.604|56=MINIFIX_CLIENT|6=102|11=STRESS_193|14=100|17=EXEC-076e12c4|31=102|32=100|37=ORD_b5fa8ec1|39=2|54=2|55=GOOG|150=F|151=0|10=056|8=FIX.4.4|9=168|35=8|34=271|49=EXEC_SERVER|52=20260402-11:46:11.605|56=MINIFIX_CLIENT|6=0|11=STRESS_193|14=0|17=EXEC_1775130371605|37=GEN_1775130371605|39=0|54=1|55=GOOG|150=0|151=100|10=048|8=FIX.4.4|9=168|35=8|34=272|49=EXEC_SERVER|52=20260402-11:46:11.606|56=MINIFIX_CLIENT|6=0|11=STRESS_194|14=0|17=EXEC_1775130371606|37=GEN_1775130371606|39=0|54=2|55=MSFT|150=0|151=200|10=069|8=FIX.4.4|9=173|35=8|34=273|49=EXEC_SERVER|52=20260402-11:46:11.610|56=MINIFIX_CLIENT|6=101|11=STRESS_195|14=500|17=EXEC-985205cd|31=101|32=500|37=ORD_20c185fa|39=2|54=2|55=IBM|150=F|151=0|10=142|8=FIX.4.4|9=167|35=8|34=274|49=EXEC_SERVER|52=20260402-11:46:11.610|56=MINIFIX_CLIENT|6=0|11=STRESS_195|14=0|17=EXEC_1775130371610|37=GEN_1775130371610|39=0|54=1|55=IBM|150=0|151=500|10=216|8=FIX.4.4|9=174|35=8|34=275|49=EXEC_SERVER|52=20260402-11:46:11.614|56=MINIFIX_CLIENT|6=101|11=STRESS_196|14=100|17=EXEC-6ef93719|31=101|32=100|37=ORD_b665a3a1|39=2|54=1|55=GOOG|150=F|151=0|10=234|8=FIX.4.4|9=168|35=8|34=276|49=EXEC_SERVER|52=20260402-11:46:11.614|56=MINIFIX_CLIENT|6=0|11=STRESS_196|14=0|17=EXEC_1775130371614|37=GEN_1775130371614|39=0|54=2|55=GOOG|150=0|151=100|10=057|8=FIX.4.4|9=168|35=8|34=277|49=EXEC_SERVER|52=20260402-11:46:11.616|56=MINIFIX_CLIENT|6=0|11=STRESS_197|14=0|17=EXEC_1775130371616|37=GEN_1775130371616|39=0|54=1|55=MSFT|150=0|151=200|10=079|8=FIX.4.4|9=167|35=8|34=278|49=EXEC_SERVER|52=20260402-11:46:11.619|56=MINIFIX_CLIENT|6=0|11=STRESS_198|14=0|17=EXEC_1775130371619|37=GEN_1775130371619|39=0|54=2|55=IBM|150=0|151=500|10=251|8=FIX.4.4|9=174|35=8|34=279|49=EXEC_SERVER|52=20260402-11:46:11.621|56=MINIFIX_CLIENT|6=103|11=STRESS_199|14=100|17=EXEC-d64a077c|31=103|32=100|37=ORD_257f7051|39=2|54=2|55=GOOG|150=F|151=0|10=190|8=FIX.4.4|9=168|35=8|34=280|49=EXEC_SERVER|52=20260402-11:46:11.622|56=MINIFIX_CLIENT|6=0|11=STRESS_199|14=0|17=EXEC_1775130371622|37=GEN_1775130371622|39=0|54=1|55=GOOG|150=0|151=100|10=051|8=FIX.4.4|9=168|35=8|34=281|49=EXEC_SERVER|52=20260402-11:46:11.624|56=MINIFIX_CLIENT|6=0|11=STRESS_200|14=0|17=EXEC_1775130371624|37=GEN_1775130371624|39=0|54=2|55=MSFT|150=0|151=200|10=057|8=FIX.4.4|9=167|35=8|34=282|49=EXEC_SERVER|52=20260402-11:46:11.627|56=MINIFIX_CLIENT|6=0|11=STRESS_201|14=0|17=EXEC_1775130371627|37=GEN_1775130371627|39=0|54=1|55=IBM|150=0|151=500|10=227|8=FIX.4.4|9=168|35=8|34=283|49=EXEC_SERVER|52=20260402-11:46:11.629|56=MINIFIX_CLIENT|6=0|11=STRESS_202|14=0|17=EXEC_1775130371629|37=GEN_1775130371629|39=0|54=2|55=GOOG|150=0|151=100|10=061|8=FIX.4.4|9=174|35=8|34=284|49=EXEC_SERVER|52=20260402-11:46:11.632|56=MINIFIX_CLIENT|6=102|11=STRESS_203|14=200|17=EXEC-4159e454|31=102|32=200|37=ORD_d8eb6bc8|39=2|54=2|55=MSFT|150=F|151=0|10=038|8=FIX.4.4|9=168|35=8|34=285|49=EXEC_SERVER|52=20260402-11:46:11.632|56=MINIFIX_CLIENT|6=0|11=STRESS_203|14=0|17=EXEC_1775130371632|37=GEN_1775130371632|39=0|54=1|55=MSFT|150=0|151=200|10=060|8=FIX.4.4|9=167|35=8|34=286|49=EXEC_SERVER|52=20260402-11:46:11.635|56=MINIFIX_CLIENT|6=0|11=STRESS_204|14=0|17=EXEC_1775130371635|37=GEN_1775130371635|39=0|54=2|55=IBM|150=0|151=500|10=232|8=FIX.4.4|9=174|35=8|34=287|49=EXEC_SERVER|52=20260402-11:46:11.639|56=MINIFIX_CLIENT|6=101|11=STRESS_205|14=100|17=EXEC-b24faba8|31=101|32=100|37=ORD_6eb67000|39=2|54=2|55=GOOG|150=F|151=0|10=057|8=FIX.4.4|9=168|35=8|34=288|49=EXEC_SERVER|52=20260402-11:46:11.639|56=MINIFIX_CLIENT|6=0|11=STRESS_205|14=0|17=EXEC_1775130371639|37=GEN_1775130371639|39=0|54=1|55=GOOG|150=0|151=100|10=071|8=FIX.4.4|9=174|35=8|34=289|49=EXEC_SERVER|52=20260402-11:46:11.643|56=MINIFIX_CLIENT|6=101|11=STRESS_206|14=200|17=EXEC-1b505bf6|31=101|32=200|37=ORD_1edc3bba|39=2|54=1|55=MSFT|150=F|151=0|10=162|8=FIX.4.4|9=168|35=8|34=290|49=EXEC_SERVER|52=20260402-11:46:11.643|56=MINIFIX_CLIENT|6=0|11=STRESS_206|14=0|17=EXEC_1775130371643|37=GEN_1775130371643|39=0|54=2|55=MSFT|150=0|151=200|10=066|8=FIX.4.4|9=167|35=8|34=291|49=EXEC_SERVER|52=20260402-11:46:11.645|56=MINIFIX_CLIENT|6=0|11=STRESS_207|14=0|17=EXEC_1775130371645|37=GEN_1775130371645|39=0|54=1|55=IBM|150=0|151=500|10=233|8=FIX.4.4|9=168|35=8|34=292|49=EXEC_SERVER|52=20260402-11:46:11.648|56=MINIFIX_CLIENT|6=0|11=STRESS_208|14=0|17=EXEC_1775130371648|37=GEN_1775130371648|39=0|54=2|55=GOOG|150=0|151=100|10=070|8=FIX.4.4|9=174|35=8|34=293|49=EXEC_SERVER|52=20260402-11:46:11.651|56=MINIFIX_CLIENT|6=103|11=STRESS_209|14=200|17=EXEC-f9fd9c08|31=103|32=200|37=ORD_c6fb8fd3|39=2|54=2|55=MSFT|150=F|151=0|10=199|8=FIX.4.4|9=168|35=8|34=294|49=EXEC_SERVER|52=20260402-11:46:11.652|56=MINIFIX_CLIENT|6=0|11=STRESS_209|14=0|17=EXEC_1775130371652|37=GEN_1775130371652|39=0|54=1|55=MSFT|150=0|151=200|10=072|8=FIX.4.4|9=167|35=8|34=295|49=EXEC_SERVER|52=20260402-11:46:11.654|56=MINIFIX_CLIENT|6=0|11=STRESS_210|14=0|17=EXEC_1775130371654|37=GEN_1775130371654|39=0|54=2|55=IBM|150=0|151=500|10=232|8=FIX.4.4|9=168|35=8|34=296|49=EXEC_SERVER|52=20260402-11:46:11.656|56=MINIFIX_CLIENT|6=0|11=STRESS_211|14=0|17=EXEC_1775130371656|37=GEN_1775130371656|39=0|54=1|55=GOOG|150=0|151=100|10=064|8=FIX.4.4|9=168|35=8|34=297|49=EXEC_SERVER|52=20260402-11:46:11.659|56=MINIFIX_CLIENT|6=0|11=STRESS_212|14=0|17=EXEC_1775130371659|37=GEN_1775130371659|39=0|54=2|55=MSFT|150=0|151=200|10=091|8=FIX.4.4|9=173|35=8|34=298|49=EXEC_SERVER|52=20260402-11:46:11.662|56=MINIFIX_CLIENT|6=102|11=STRESS_213|14=500|17=EXEC-0e07d761|31=102|32=500|37=ORD_4959f6dc|39=2|54=2|55=IBM|150=F|151=0|10=163|8=FIX.4.4|9=167|35=8|34=299|49=EXEC_SERVER|52=20260402-11:46:11.664|56=MINIFIX_CLIENT|6=0|11=STRESS_213|14=0|17=EXEC_1775130371664|37=GEN_1775130371664|39=0|54=1|55=IBM|150=0|151=500|10=241|8=FIX.4.4|9=168|35=8|34=300|49=EXEC_SERVER|52=20260402-11:46:11.667|56=MINIFIX_CLIENT|6=0|11=STRESS_214|14=0|17=EXEC_1775130371667|37=GEN_1775130371667|39=0|54=2|55=GOOG|150=0|151=100|10=060|8=FIX.4.4|9=174|35=8|34=301|49=EXEC_SERVER|52=20260402-11:46:11.671|56=MINIFIX_CLIENT|6=101|11=STRESS_215|14=200|17=EXEC-5df14bc4|31=101|32=200|37=ORD_67ffaf81|39=2|54=2|55=MSFT|150=F|151=0|10=123|8=FIX.4.4|9=168|35=8|34=302|49=EXEC_SERVER|52=20260402-11:46:11.672|56=MINIFIX_CLIENT|6=0|11=STRESS_215|14=0|17=EXEC_1775130371672|37=GEN_1775130371672|39=0|54=1|55=MSFT|150=0|151=200|10=065|8=FIX.4.4|9=173|35=8|34=303|49=EXEC_SERVER|52=20260402-11:46:11.674|56=MINIFIX_CLIENT|6=101|11=STRESS_216|14=500|17=EXEC-d7a5b37d|31=101|32=500|37=ORD_11850b5e|39=2|54=1|55=IBM|150=F|151=0|10=185|8=FIX.4.4|9=167|35=8|34=304|49=EXEC_SERVER|52=20260402-11:46:11.675|56=MINIFIX_CLIENT|6=0|11=STRESS_216|14=0|17=EXEC_1775130371675|37=GEN_1775130371675|39=0|54=2|55=IBM|150=0|151=500|10=238|8=FIX.4.4|9=168|35=8|34=305|49=EXEC_SERVER|52=20260402-11:46:11.677|56=MINIFIX_CLIENT|6=0|11=STRESS_217|14=0|17=EXEC_1775130371677|37=GEN_1775130371677|39=0|54=1|55=GOOG|150=0|151=100|10=070|8=FIX.4.4|9=168|35=8|34=306|49=EXEC_SERVER|52=20260402-11:46:11.681|56=MINIFIX_CLIENT|6=0|11=STRESS_218|14=0|17=EXEC_1775130371681|37=GEN_1775130371681|39=0|54=2|55=MSFT|150=0|151=200|10=073|8=FIX.4.4|9=173|35=8|34=307|49=EXEC_SERVER|52=20260402-11:46:11.684|56=MINIFIX_CLIENT|6=103|11=STRESS_219|14=500|17=EXEC-7ffccbe6|31=103|32=500|37=ORD_98ca062d|39=2|54=2|55=IBM|150=F|151=0|10=097|8=FIX.4.4|9=167|35=8|34=308|49=EXEC_SERVER|52=20260402-11:46:11.689|56=MINIFIX_CLIENT|6=0|11=STRESS_219|14=0|17=EXEC_1775130371689|37=GEN_1775130371689|39=0|54=1|55=IBM|150=0|151=500|10=003|8=FIX.4.4|9=168|35=8|34=309|49=EXEC_SERVER|52=20260402-11:46:11.692|56=MINIFIX_CLIENT|6=0|11=STRESS_220|14=0|17=EXEC_1775130371692|37=GEN_1775130371692|39=0|54=2|55=GOOG|150=0|151=100|10=060|8=FIX.4.4|9=168|35=8|34=310|49=EXEC_SERVER|52=20260402-11:46:11.694|56=MINIFIX_CLIENT|6=0|11=STRESS_221|14=0|17=EXEC_1775130371694|37=GEN_1775130371694|39=0|54=1|55=MSFT|150=0|151=200|10=073|8=FIX.4.4|9=167|35=8|34=311|49=EXEC_SERVER|52=20260402-11:46:11.696|56=MINIFIX_CLIENT|6=0|11=STRESS_222|14=0|17=EXEC_1775130371696|37=GEN_1775130371696|39=0|54=2|55=IBM|150=0|151=500|10=242|8=FIX.4.4|9=174|35=8|34=312|49=EXEC_SERVER|52=20260402-11:46:11.698|56=MINIFIX_CLIENT|6=102|11=STRESS_223|14=100|17=EXEC-db6a62a0|31=102|32=100|37=ORD_db356279|39=2|54=2|55=GOOG|150=F|151=0|10=013|8=FIX.4.4|9=168|35=8|34=313|49=EXEC_SERVER|52=20260402-11:46:11.699|56=MINIFIX_CLIENT|6=0|11=STRESS_223|14=0|17=EXEC_1775130371699|37=GEN_1775130371699|39=0|54=1|55=GOOG|150=0|151=100|10=078|8=FIX.4.4|9=168|35=8|34=314|49=EXEC_SERVER|52=20260402-11:46:11.702|56=MINIFIX_CLIENT|6=0|11=STRESS_224|14=0|17=EXEC_1775130371702|37=GEN_1775130371702|39=0|54=2|55=MSFT|150=0|151=200|10=051|8=FIX.4.4|9=173|35=8|34=315|49=EXEC_SERVER|52=20260402-11:46:11.704|56=MINIFIX_CLIENT|6=101|11=STRESS_225|14=500|17=EXEC-a15b8246|31=101|32=500|37=ORD_325fa453|39=2|54=2|55=IBM|150=F|151=0|10=085|8=FIX.4.4|9=167|35=8|34=316|49=EXEC_SERVER|52=20260402-11:46:11.705|56=MINIFIX_CLIENT|6=0|11=STRESS_225|14=0|17=EXEC_1775130371705|37=GEN_1775130371705|39=0|54=1|55=IBM|150=0|151=500|10=222|8=FIX.4.4|9=174|35=8|34=317|49=EXEC_SERVER|52=20260402-11:46:11.707|56=MINIFIX_CLIENT|6=101|11=STRESS_226|14=100|17=EXEC-fd89b00d|31=101|32=100|37=ORD_83f43699|39=2|54=1|55=GOOG|150=F|151=0|10=238|8=FIX.4.4|9=168|35=8|34=318|49=EXEC_SERVER|52=20260402-11:46:11.708|56=MINIFIX_CLIENT|6=0|11=STRESS_226|14=0|17=EXEC_1775130371708|37=GEN_1775130371708|39=0|54=2|55=GOOG|150=0|151=100|10=060|8=FIX.4.4|9=168|35=8|34=319|49=EXEC_SERVER|52=20260402-11:46:11.710|56=MINIFIX_CLIENT|6=0|11=STRESS_227|14=0|17=EXEC_1775130371710|37=GEN_1775130371710|39=0|54=1|55=MSFT|150=0|151=200|10=055|8=FIX.4.4|9=167|35=8|34=320|49=EXEC_SERVER|52=20260402-11:46:11.712|56=MINIFIX_CLIENT|6=0|11=STRESS_228|14=0|17=EXEC_1775130371712|37=GEN_1775130371712|39=0|54=2|55=IBM|150=0|151=500|10=215|8=FIX.4.4|9=174|35=8|34=321|49=EXEC_SERVER|52=20260402-11:46:11.715|56=MINIFIX_CLIENT|6=103|11=STRESS_229|14=100|17=EXEC-7cdf7658|31=103|32=100|37=ORD_2bc52b75|39=2|54=2|55=GOOG|150=F|151=0|10=025|8=FIX.4.4|9=168|35=8|34=322|49=EXEC_SERVER|52=20260402-11:46:11.716|56=MINIFIX_CLIENT|6=0|11=STRESS_229|14=0|17=EXEC_1775130371716|37=GEN_1775130371716|39=0|54=1|55=GOOG|150=0|151=100|10=054|8=FIX.4.4|9=168|35=8|34=323|49=EXEC_SERVER|52=20260402-11:46:11.718|56=MINIFIX_CLIENT|6=0|11=STRESS_230|14=0|17=EXEC_1775130371718|37=GEN_1775130371718|39=0|54=2|55=MSFT|150=0|151=200|10=069|8=FIX.4.4|9=167|35=8|34=324|49=EXEC_SERVER|52=20260402-11:46:11.720|56=MINIFIX_CLIENT|6=0|11=STRESS_231|14=0|17=EXEC_1775130371720|37=GEN_1775130371720|39=0|54=1|55=IBM|150=0|151=500|10=209|8=FIX.4.4|9=168|35=8|34=325|49=EXEC_SERVER|52=20260402-11:46:11.723|56=MINIFIX_CLIENT|6=0|11=STRESS_232|14=0|17=EXEC_1775130371723|37=GEN_1775130371723|39=0|54=2|55=GOOG|150=0|151=100|10=046|8=FIX.4.4|9=174|35=8|34=326|49=EXEC_SERVER|52=20260402-11:46:11.725|56=MINIFIX_CLIENT|6=102|11=STRESS_233|14=200|17=EXEC-ff5a1ecc|31=102|32=200|37=ORD_374ac96a|39=2|54=2|55=MSFT|150=F|151=0|10=174|8=FIX.4.4|9=168|35=8|34=327|49=EXEC_SERVER|52=20260402-11:46:11.725|56=MINIFIX_CLIENT|6=0|11=STRESS_233|14=0|17=EXEC_1775130371725|37=GEN_1775130371725|39=0|54=1|55=MSFT|150=0|151=200|10=069|8=FIX.4.4|9=167|35=8|34=328|49=EXEC_SERVER|52=20260402-11:46:11.727|56=MINIFIX_CLIENT|6=0|11=STRESS_234|14=0|17=EXEC_1775130371727|37=GEN_1775130371727|39=0|54=2|55=IBM|150=0|151=500|10=238|8=FIX.4.4|9=174|35=8|34=329|49=EXEC_SERVER|52=20260402-11:46:11.729|56=MINIFIX_CLIENT|6=101|11=STRESS_235|14=100|17=EXEC-156d9e18|31=101|32=100|37=ORD_dfcc9847|39=2|54=2|55=GOOG|150=F|151=0|10=040|8=FIX.4.4|9=168|35=8|34=330|49=EXEC_SERVER|52=20260402-11:46:11.730|56=MINIFIX_CLIENT|6=0|11=STRESS_235|14=0|17=EXEC_1775130371730|37=GEN_1775130371730|39=0|54=1|55=GOOG|150=0|151=100|10=038|8=FIX.4.4|9=174|35=8|34=331|49=EXEC_SERVER|52=20260402-11:46:11.732|56=MINIFIX_CLIENT|6=101|11=STRESS_236|14=200|17=EXEC-b5b42fd3|31=101|32=200|37=ORD_2057086b|39=2|54=1|55=MSFT|150=F|151=0|10=226|8=FIX.4.4|9=168|35=8|34=332|49=EXEC_SERVER|52=20260402-11:46:11.732|56=MINIFIX_CLIENT|6=0|11=STRESS_236|14=0|17=EXEC_1775130371732|37=GEN_1775130371732|39=0|54=2|55=MSFT|150=0|151=200|10=063|8=FIX.4.4|9=167|35=8|34=333|49=EXEC_SERVER|52=20260402-11:46:11.734|56=MINIFIX_CLIENT|6=0|11=STRESS_237|14=0|17=EXEC_1775130371734|37=GEN_1775130371734|39=0|54=1|55=IBM|150=0|151=500|10=230|8=FIX.4.4|9=168|35=8|34=334|49=EXEC_SERVER|52=20260402-11:46:11.736|56=MINIFIX_CLIENT|6=0|11=STRESS_238|14=0|17=EXEC_1775130371736|37=GEN_1775130371736|39=0|54=2|55=GOOG|150=0|151=100|10=064|8=FIX.4.4|9=174|35=8|34=335|49=EXEC_SERVER|52=20260402-11:46:11.738|56=MINIFIX_CLIENT|6=103|11=STRESS_239|14=200|17=EXEC-b516ea4c|31=103|32=200|37=ORD_1a713316|39=2|54=2|55=MSFT|150=F|151=0|10=236|8=FIX.4.4|9=168|35=8|34=336|49=EXEC_SERVER|52=20260402-11:46:11.738|56=MINIFIX_CLIENT|6=0|11=STRESS_239|14=0|17=EXEC_1775130371738|37=GEN_1775130371738|39=0|54=1|55=MSFT|150=0|151=200|10=087|8=FIX.4.4|9=167|35=8|34=337|49=EXEC_SERVER|52=20260402-11:46:11.740|56=MINIFIX_CLIENT|6=0|11=STRESS_240|14=0|17=EXEC_1775130371740|37=GEN_1775130371740|39=0|54=2|55=IBM|150=0|151=500|10=220|8=FIX.4.4|9=168|35=8|34=338|49=EXEC_SERVER|52=20260402-11:46:11.743|56=MINIFIX_CLIENT|6=0|11=STRESS_241|14=0|17=EXEC_1775130371743|37=GEN_1775130371743|39=0|54=1|55=GOOG|150=0|151=100|10=055|8=FIX.4.4|9=168|35=8|34=339|49=EXEC_SERVER|52=20260402-11:46:11.746|56=MINIFIX_CLIENT|6=0|11=STRESS_242|14=0|17=EXEC_1775130371746|37=GEN_1775130371746|39=0|54=2|55=MSFT|150=0|151=200|10=082|8=FIX.4.4|9=173|35=8|34=340|49=EXEC_SERVER|52=20260402-11:46:11.748|56=MINIFIX_CLIENT|6=102|11=STRESS_243|14=500|17=EXEC-f3de1e6e|31=102|32=500|37=ORD_e8c06e7e|39=2|54=2|55=IBM|150=F|151=0|10=093|8=FIX.4.4|9=167|35=8|34=341|49=EXEC_SERVER|52=20260402-11:46:11.749|56=MINIFIX_CLIENT|6=0|11=STRESS_243|14=0|17=EXEC_1775130371749|37=GEN_1775130371749|39=0|54=1|55=IBM|150=0|151=500|10=244|8=FIX.4.4|9=168|35=8|34=342|49=EXEC_SERVER|52=20260402-11:46:11.751|56=MINIFIX_CLIENT|6=0|11=STRESS_244|14=0|17=EXEC_1775130371751|37=GEN_1775130371751|39=0|54=2|55=GOOG|150=0|151=100|10=051|8=FIX.4.4|9=174|35=8|34=343|49=EXEC_SERVER|52=20260402-11:46:11.753|56=MINIFIX_CLIENT|6=101|11=STRESS_245|14=200|17=EXEC-12af0253|31=101|32=200|37=ORD_510fdb80|39=2|54=2|55=MSFT|150=F|151=0|10=221|8=FIX.4.4|9=168|35=8|34=344|49=EXEC_SERVER|52=20260402-11:46:11.754|56=MINIFIX_CLIENT|6=0|11=STRESS_245|14=0|17=EXEC_1775130371754|37=GEN_1775130371754|39=0|54=1|55=MSFT|150=0|151=200|10=077|8=FIX.4.4|9=173|35=8|34=345|49=EXEC_SERVER|52=20260402-11:46:11.756|56=MINIFIX_CLIENT|6=101|11=STRESS_246|14=500|17=EXEC-d9e18576|31=101|32=500|37=ORD_f0d37acb|39=2|54=1|55=IBM|150=F|151=0|10=254|8=FIX.4.4|9=167|35=8|34=346|49=EXEC_SERVER|52=20260402-11:46:11.756|56=MINIFIX_CLIENT|6=0|11=STRESS_246|14=0|17=EXEC_1775130371756|37=GEN_1775130371756|39=0|54=2|55=IBM|150=0|151=500|10=247|8=FIX.4.4|9=168|35=8|34=347|49=EXEC_SERVER|52=20260402-11:46:11.758|56=MINIFIX_CLIENT|6=0|11=STRESS_247|14=0|17=EXEC_1775130371758|37=GEN_1775130371758|39=0|54=1|55=GOOG|150=0|151=100|10=079|8=FIX.4.4|9=168|35=8|34=348|49=EXEC_SERVER|52=20260402-11:46:11.761|56=MINIFIX_CLIENT|6=0|11=STRESS_248|14=0|17=EXEC_1775130371761|37=GEN_1775130371761|39=0|54=2|55=MSFT|150=0|151=200|10=079|8=FIX.4.4|9=173|35=8|34=349|49=EXEC_SERVER|52=20260402-11:46:11.763|56=MINIFIX_CLIENT|6=103|11=STRESS_249|14=500|17=EXEC-9c115ebe|31=103|32=500|37=ORD_6e1dfae8|39=2|54=2|55=IBM|150=F|151=0|10=100|8=FIX.4.4|9=167|35=8|34=350|49=EXEC_SERVER|52=20260402-11:46:11.764|56=MINIFIX_CLIENT|6=0|11=STRESS_249|14=0|17=EXEC_1775130371764|37=GEN_1775130371764|39=0|54=1|55=IBM|150=0|151=500|10=241|8=FIX.4.4|9=168|35=8|34=351|49=EXEC_SERVER|52=20260402-11:46:11.766|56=MINIFIX_CLIENT|6=0|11=STRESS_250|14=0|17=EXEC_1775130371766|37=GEN_1775130371766|39=0|54=2|55=GOOG|150=0|151=100|10=066|8=FIX.4.4|9=168|35=8|34=352|49=EXEC_SERVER|52=20260402-11:46:11.769|56=MINIFIX_CLIENT|6=0|11=STRESS_251|14=0|17=EXEC_1775130371769|37=GEN_1775130371769|39=0|54=1|55=MSFT|150=0|151=200|10=091|8=FIX.4.4|9=167|35=8|34=353|49=EXEC_SERVER|52=20260402-11:46:11.771|56=MINIFIX_CLIENT|6=0|11=STRESS_252|14=0|17=EXEC_1775130371771|37=GEN_1775130371771|39=0|54=2|55=IBM|150=0|151=500|10=233|8=FIX.4.4|9=174|35=8|34=354|49=EXEC_SERVER|52=20260402-11:46:11.774|56=MINIFIX_CLIENT|6=102|11=STRESS_253|14=100|17=EXEC-49406fe7|31=102|32=100|37=ORD_785a85a4|39=2|54=2|55=GOOG|150=F|151=0|10=197|8=FIX.4.4|9=168|35=8|34=355|49=EXEC_SERVER|52=20260402-11:46:11.775|56=MINIFIX_CLIENT|6=0|11=STRESS_253|14=0|17=EXEC_1775130371775|37=GEN_1775130371775|39=0|54=1|55=GOOG|150=0|151=100|10=072|8=FIX.4.4|9=168|35=8|34=356|49=EXEC_SERVER|52=20260402-11:46:11.778|56=MINIFIX_CLIENT|6=0|11=STRESS_254|14=0|17=EXEC_1775130371778|37=GEN_1775130371778|39=0|54=2|55=MSFT|150=0|151=200|10=099|8=FIX.4.4|9=173|35=8|34=357|49=EXEC_SERVER|52=20260402-11:46:11.780|56=MINIFIX_CLIENT|6=101|11=STRESS_255|14=500|17=EXEC-c80475fc|31=101|32=500|37=ORD_64e9bc43|39=2|54=2|55=IBM|150=F|151=0|10=208|8=FIX.4.4|9=167|35=8|34=358|49=EXEC_SERVER|52=20260402-11:46:11.781|56=MINIFIX_CLIENT|6=0|11=STRESS_255|14=0|17=EXEC_1775130371781|37=GEN_1775130371781|39=0|54=1|55=IBM|150=0|151=500|10=243|8=FIX.4.4|9=174|35=8|34=359|49=EXEC_SERVER|52=20260402-11:46:11.784|56=MINIFIX_CLIENT|6=101|11=STRESS_256|14=100|17=EXEC-9d3ebf8d|31=101|32=100|37=ORD_41648d1d|39=2|54=1|55=GOOG|150=F|151=0|10=084|8=FIX.4.4|9=168|35=8|34=360|49=EXEC_SERVER|52=20260402-11:46:11.784|56=MINIFIX_CLIENT|6=0|11=STRESS_256|14=0|17=EXEC_1775130371784|37=GEN_1775130371784|39=0|54=2|55=GOOG|150=0|151=100|10=072|8=FIX.4.4|9=168|35=8|34=361|49=EXEC_SERVER|52=20260402-11:46:11.787|56=MINIFIX_CLIENT|6=0|11=STRESS_257|14=0|17=EXEC_1775130371787|37=GEN_1775130371787|39=0|54=1|55=MSFT|150=0|151=200|10=097|8=FIX.4.4|9=167|35=8|34=362|49=EXEC_SERVER|52=20260402-11:46:11.789|56=MINIFIX_CLIENT|6=0|11=STRESS_258|14=0|17=EXEC_1775130371789|37=GEN_1775130371789|39=0|54=2|55=IBM|150=0|151=500|10=010|8=FIX.4.4|9=174|35=8|34=363|49=EXEC_SERVER|52=20260402-11:46:11.792|56=MINIFIX_CLIENT|6=103|11=STRESS_259|14=100|17=EXEC-333f6c3f|31=103|32=100|37=ORD_846b7a68|39=2|54=2|55=GOOG|150=F|151=0|10=248|8=FIX.4.4|9=168|35=8|34=364|49=EXEC_SERVER|52=20260402-11:46:11.792|56=MINIFIX_CLIENT|6=0|11=STRESS_259|14=0|17=EXEC_1775130371792|37=GEN_1775130371792|39=0|54=1|55=GOOG|150=0|151=100|10=075|8=FIX.4.4|9=168|35=8|34=365|49=EXEC_SERVER|52=20260402-11:46:11.796|56=MINIFIX_CLIENT|6=0|11=STRESS_260|14=0|17=EXEC_1775130371796|37=GEN_1775130371796|39=0|54=2|55=MSFT|150=0|151=200|10=096|8=FIX.4.4|9=167|35=8|34=366|49=EXEC_SERVER|52=20260402-11:46:11.797|56=MINIFIX_CLIENT|6=0|11=STRESS_261|14=0|17=EXEC_1775130371797|37=GEN_1775130371797|39=0|54=1|55=IBM|150=0|151=500|10=004|8=FIX.4.4|9=168|35=8|34=367|49=EXEC_SERVER|52=20260402-11:46:11.801|56=MINIFIX_CLIENT|6=0|11=STRESS_262|14=0|17=EXEC_1775130371801|37=GEN_1775130371801|39=0|54=2|55=GOOG|150=0|151=100|10=046|8=FIX.4.4|9=174|35=8|34=368|49=EXEC_SERVER|52=20260402-11:46:11.805|56=MINIFIX_CLIENT|6=102|11=STRESS_263|14=200|17=EXEC-faa3cadd|31=102|32=200|37=ORD_11929aab|39=2|54=2|55=MSFT|150=F|151=0|10=215|8=FIX.4.4|9=168|35=8|34=369|49=EXEC_SERVER|52=20260402-11:46:11.805|56=MINIFIX_CLIENT|6=0|11=STRESS_263|14=0|17=EXEC_1775130371805|37=GEN_1775130371805|39=0|54=1|55=MSFT|150=0|151=200|10=075|8=FIX.4.4|9=167|35=8|34=370|49=EXEC_SERVER|52=20260402-11:46:11.808|56=MINIFIX_CLIENT|6=0|11=STRESS_264|14=0|17=EXEC_1775130371808|37=GEN_1775130371808|39=0|54=2|55=IBM|150=0|151=500|10=238|8=FIX.4.4|9=174|35=8|34=371|49=EXEC_SERVER|52=20260402-11:46:11.810|56=MINIFIX_CLIENT|6=101|11=STRESS_265|14=100|17=EXEC-6a12f512|31=101|32=100|37=ORD_85224900|39=2|54=2|55=GOOG|150=F|151=0|10=066|8=FIX.4.4|9=168|35=8|34=372|49=EXEC_SERVER|52=20260402-11:46:11.811|56=MINIFIX_CLIENT|6=0|11=STRESS_265|14=0|17=EXEC_1775130371811|37=GEN_1775130371811|39=0|54=1|55=GOOG|150=0|151=100|10=047|8=FIX.4.4|9=174|35=8|34=373|49=EXEC_SERVER|52=20260402-11:46:11.814|56=MINIFIX_CLIENT|6=101|11=STRESS_266|14=200|17=EXEC-a9369ce7|31=101|32=200|37=ORD_b5a30aa2|39=2|54=1|55=MSFT|150=F|151=0|10=076|8=FIX.4.4|9=168|35=8|34=374|49=EXEC_SERVER|52=20260402-11:46:11.816|56=MINIFIX_CLIENT|6=0|11=STRESS_266|14=0|17=EXEC_1775130371815|37=GEN_1775130371815|39=0|54=2|55=MSFT|150=0|151=200|10=079|8=FIX.4.4|9=167|35=8|34=375|49=EXEC_SERVER|52=20260402-11:46:11.818|56=MINIFIX_CLIENT|6=0|11=STRESS_267|14=0|17=EXEC_1775130371818|37=GEN_1775130371818|39=0|54=1|55=IBM|150=0|151=500|10=248|8=FIX.4.4|9=168|35=8|34=376|49=EXEC_SERVER|52=20260402-11:46:11.821|56=MINIFIX_CLIENT|6=0|11=STRESS_268|14=0|17=EXEC_1775130371821|37=GEN_1775130371821|39=0|54=2|55=GOOG|150=0|151=100|10=058|8=FIX.4.4|9=174|35=8|34=377|49=EXEC_SERVER|52=20260402-11:46:11.825|56=MINIFIX_CLIENT|6=103|11=STRESS_269|14=200|17=EXEC-591d7ce6|31=103|32=200|37=ORD_e12f3bbd|39=2|54=2|55=MSFT|150=F|151=0|10=145|8=FIX.4.4|9=168|35=8|34=378|49=EXEC_SERVER|52=20260402-11:46:11.826|56=MINIFIX_CLIENT|6=0|11=STRESS_269|14=0|17=EXEC_1775130371826|37=GEN_1775130371826|39=0|54=1|55=MSFT|150=0|151=200|10=090|8=FIX.4.4|9=167|35=8|34=379|49=EXEC_SERVER|52=20260402-11:46:11.829|56=MINIFIX_CLIENT|6=0|11=STRESS_270|14=0|17=EXEC_1775130371829|37=GEN_1775130371829|39=0|54=2|55=IBM|150=0|151=500|10=253|8=FIX.4.4|9=168|35=8|34=380|49=EXEC_SERVER|52=20260402-11:46:11.832|56=MINIFIX_CLIENT|6=0|11=STRESS_271|14=0|17=EXEC_1775130371832|37=GEN_1775130371832|39=0|54=1|55=GOOG|150=0|151=100|10=052|8=FIX.4.4|9=168|35=8|34=381|49=EXEC_SERVER|52=20260402-11:46:11.833|56=MINIFIX_CLIENT|6=0|11=STRESS_272|14=0|17=EXEC_1775130371833|37=GEN_1775130371833|39=0|54=2|55=MSFT|150=0|151=200|10=073|8=FIX.4.4|9=173|35=8|34=382|49=EXEC_SERVER|52=20260402-11:46:11.837|56=MINIFIX_CLIENT|6=102|11=STRESS_273|14=500|17=EXEC-1c9b0eae|31=102|32=500|37=ORD_e02b1f8d|39=2|54=2|55=IBM|150=F|151=0|10=081|8=FIX.4.4|9=167|35=8|34=383|49=EXEC_SERVER|52=20260402-11:46:11.837|56=MINIFIX_CLIENT|6=0|11=STRESS_273|14=0|17=EXEC_1775130371837|37=GEN_1775130371837|39=0|54=1|55=IBM|150=0|151=500|10=247|8=FIX.4.4|9=168|35=8|34=384|49=EXEC_SERVER|52=20260402-11:46:11.841|56=MINIFIX_CLIENT|6=0|11=STRESS_274|14=0|17=EXEC_1775130371841|37=GEN_1775130371841|39=0|54=2|55=GOOG|150=0|151=100|10=060|8=FIX.4.4|9=174|35=8|34=385|49=EXEC_SERVER|52=20260402-11:46:11.844|56=MINIFIX_CLIENT|6=101|11=STRESS_275|14=200|17=EXEC-540f2be1|31=101|32=200|37=ORD_1b5a7bf2|39=2|54=2|55=MSFT|150=F|151=0|10=076|8=FIX.4.4|9=168|35=8|34=386|49=EXEC_SERVER|52=20260402-11:46:11.845|56=MINIFIX_CLIENT|6=0|11=STRESS_275|14=0|17=EXEC_1775130371845|37=GEN_1775130371845|39=0|54=1|55=MSFT|150=0|151=200|10=089|8=FIX.4.4|9=173|35=8|34=387|49=EXEC_SERVER|52=20260402-11:46:11.848|56=MINIFIX_CLIENT|6=101|11=STRESS_276|14=500|17=EXEC-bcde0c3c|31=101|32=500|37=ORD_99626610|39=2|54=1|55=IBM|150=F|151=0|10=208|8=FIX.4.4|9=167|35=8|34=388|49=EXEC_SERVER|52=20260402-11:46:11.849|56=MINIFIX_CLIENT|6=0|11=STRESS_276|14=0|17=EXEC_1775130371849|37=GEN_1775130371849|39=0|54=2|55=IBM|150=0|151=500|10=009|8=FIX.4.4|9=168|35=8|34=389|49=EXEC_SERVER|52=20260402-11:46:11.851|56=MINIFIX_CLIENT|6=0|11=STRESS_277|14=0|17=EXEC_1775130371851|37=GEN_1775130371851|39=0|54=1|55=GOOG|150=0|151=100|10=070|8=FIX.4.4|9=168|35=8|34=390|49=EXEC_SERVER|52=20260402-11:46:11.853|56=MINIFIX_CLIENT|6=0|11=STRESS_278|14=0|17=EXEC_1775130371853|37=GEN_1775130371853|39=0|54=2|55=MSFT|150=0|151=200|10=085|8=FIX.4.4|9=173|35=8|34=391|49=EXEC_SERVER|52=20260402-11:46:11.857|56=MINIFIX_CLIENT|6=103|11=STRESS_279|14=500|17=EXEC-da0b3181|31=103|32=500|37=ORD_5cc7d516|39=2|54=2|55=IBM|150=F|151=0|10=203|8=FIX.4.4|9=167|35=8|34=392|49=EXEC_SERVER|52=20260402-11:46:11.858|56=MINIFIX_CLIENT|6=0|11=STRESS_279|14=0|17=EXEC_1775130371858|37=GEN_1775130371858|39=0|54=1|55=IBM|150=0|151=500|10=006|8=FIX.4.4|9=168|35=8|34=393|49=EXEC_SERVER|52=20260402-11:46:11.859|56=MINIFIX_CLIENT|6=0|11=STRESS_280|14=0|17=EXEC_1775130371859|37=GEN_1775130371859|39=0|54=2|55=GOOG|150=0|151=100|10=084|8=FIX.4.4|9=168|35=8|34=394|49=EXEC_SERVER|52=20260402-11:46:11.862|56=MINIFIX_CLIENT|6=0|11=STRESS_281|14=0|17=EXEC_1775130371862|37=GEN_1775130371862|39=0|54=1|55=MSFT|150=0|151=200|10=082|8=FIX.4.4|9=167|35=8|34=395|49=EXEC_SERVER|52=20260402-11:46:11.865|56=MINIFIX_CLIENT|6=0|11=STRESS_282|14=0|17=EXEC_1775130371865|37=GEN_1775130371865|39=0|54=2|55=IBM|150=0|151=500|10=254|8=FIX.4.4|9=174|35=8|34=396|49=EXEC_SERVER|52=20260402-11:46:11.867|56=MINIFIX_CLIENT|6=102|11=STRESS_283|14=100|17=EXEC-089d8b70|31=102|32=100|37=ORD_1080bb85|39=2|54=2|55=GOOG|150=F|151=0|10=193|8=FIX.4.4|9=168|35=8|34=397|49=EXEC_SERVER|52=20260402-11:46:11.869|56=MINIFIX_CLIENT|6=0|11=STRESS_283|14=0|17=EXEC_1775130371869|37=GEN_1775130371869|39=0|54=1|55=GOOG|150=0|151=100|10=093|8=FIX.4.4|9=168|35=8|34=398|49=EXEC_SERVER|52=20260402-11:46:11.871|56=MINIFIX_CLIENT|6=0|11=STRESS_284|14=0|17=EXEC_1775130371871|37=GEN_1775130371871|39=0|54=2|55=MSFT|150=0|151=200|10=090|8=FIX.4.4|9=173|35=8|34=399|49=EXEC_SERVER|52=20260402-11:46:11.873|56=MINIFIX_CLIENT|6=101|11=STRESS_285|14=500|17=EXEC-04277dc7|31=101|32=500|37=ORD_d0de3c20|39=2|54=2|55=IBM|150=F|151=0|10=203|8=FIX.4.4|9=167|35=8|34=400|49=EXEC_SERVER|52=20260402-11:46:11.874|56=MINIFIX_CLIENT|6=0|11=STRESS_285|14=0|17=EXEC_1775130371874|37=GEN_1775130371874|39=0|54=1|55=IBM|150=0|151=500|10=243|8=FIX.4.4|9=174|35=8|34=401|49=EXEC_SERVER|52=20260402-11:46:11.877|56=MINIFIX_CLIENT|6=101|11=STRESS_286|14=100|17=EXEC-0034f3f1|31=101|32=100|37=ORD_d39a0562|39=2|54=1|55=GOOG|150=F|151=0|10=170|8=FIX.4.4|9=168|35=8|34=402|49=EXEC_SERVER|52=20260402-11:46:11.878|56=MINIFIX_CLIENT|6=0|11=STRESS_286|14=0|17=EXEC_1775130371878|37=GEN_1775130371878|39=0|54=2|55=GOOG|150=0|151=100|10=084|8=FIX.4.4|9=168|35=8|34=403|49=EXEC_SERVER|52=20260402-11:46:11.881|56=MINIFIX_CLIENT|6=0|11=STRESS_287|14=0|17=EXEC_1775130371881|37=GEN_1775130371881|39=0|54=1|55=MSFT|150=0|151=200|10=082|8=FIX.4.4|9=167|35=8|34=404|49=EXEC_SERVER|52=20260402-11:46:11.883|56=MINIFIX_CLIENT|6=0|11=STRESS_288|14=0|17=EXEC_1775130371883|37=GEN_1775130371883|39=0|54=2|55=IBM|150=0|151=500|10=251|8=FIX.4.4|9=174|35=8|34=405|49=EXEC_SERVER|52=20260402-11:46:11.886|56=MINIFIX_CLIENT|6=103|11=STRESS_289|14=100|17=EXEC-a6718a85|31=103|32=100|37=ORD_78395e95|39=2|54=2|55=GOOG|150=F|151=0|10=169|8=FIX.4.4|9=168|35=8|34=406|49=EXEC_SERVER|52=20260402-11:46:11.886|56=MINIFIX_CLIENT|6=0|11=STRESS_289|14=0|17=EXEC_1775130371886|37=GEN_1775130371886|39=0|54=1|55=GOOG|150=0|151=100|10=087|8=FIX.4.4|9=168|35=8|34=407|49=EXEC_SERVER|52=20260402-11:46:11.889|56=MINIFIX_CLIENT|6=0|11=STRESS_290|14=0|17=EXEC_1775130371889|37=GEN_1775130371889|39=0|54=2|55=MSFT|150=0|151=200|10=105|8=FIX.4.4|9=167|35=8|34=408|49=EXEC_SERVER|52=20260402-11:46:11.892|56=MINIFIX_CLIENT|6=0|11=STRESS_291|14=0|17=EXEC_1775130371892|37=GEN_1775130371892|39=0|54=1|55=IBM|150=0|151=500|10=248|8=FIX.4.4|9=168|35=8|34=409|49=EXEC_SERVER|52=20260402-11:46:11.894|56=MINIFIX_CLIENT|6=0|11=STRESS_292|14=0|17=EXEC_1775130371893|37=GEN_1775130371893|39=0|54=2|55=GOOG|150=0|151=100|10=080|8=FIX.4.4|9=174|35=8|34=410|49=EXEC_SERVER|52=20260402-11:46:11.897|56=MINIFIX_CLIENT|6=102|11=STRESS_293|14=200|17=EXEC-10b50c4c|31=102|32=200|37=ORD_8319d53b|39=2|54=2|55=MSFT|150=F|151=0|10=237|8=FIX.4.4|9=168|35=8|34=411|49=EXEC_SERVER|52=20260402-11:46:11.897|56=MINIFIX_CLIENT|6=0|11=STRESS_293|14=0|17=EXEC_1775130371897|37=GEN_1775130371897|39=0|54=1|55=MSFT|150=0|151=200|10=099|8=FIX.4.4|9=167|35=8|34=412|49=EXEC_SERVER|52=20260402-11:46:11.899|56=MINIFIX_CLIENT|6=0|11=STRESS_294|14=0|17=EXEC_1775130371899|37=GEN_1775130371899|39=0|54=2|55=IBM|150=0|151=500|10=012|8=FIX.4.4|9=174|35=8|34=413|49=EXEC_SERVER|52=20260402-11:46:11.902|56=MINIFIX_CLIENT|6=101|11=STRESS_295|14=100|17=EXEC-acc0414f|31=101|32=100|37=ORD_0c325254|39=2|54=2|55=GOOG|150=F|151=0|10=204|8=FIX.4.4|9=168|35=8|34=414|49=EXEC_SERVER|52=20260402-11:46:11.902|56=MINIFIX_CLIENT|6=0|11=STRESS_295|14=0|17=EXEC_1775130371902|37=GEN_1775130371902|39=0|54=1|55=GOOG|150=0|151=100|10=050|8=FIX.4.4|9=174|35=8|34=415|49=EXEC_SERVER|52=20260402-11:46:11.904|56=MINIFIX_CLIENT|6=101|11=STRESS_296|14=200|17=EXEC-a8fad84f|31=101|32=200|37=ORD_e124cfee|39=2|54=1|55=MSFT|150=F|151=0|10=231|8=FIX.4.4|9=168|35=8|34=416|49=EXEC_SERVER|52=20260402-11:46:11.905|56=MINIFIX_CLIENT|6=0|11=STRESS_296|14=0|17=EXEC_1775130371905|37=GEN_1775130371905|39=0|54=2|55=MSFT|150=0|151=200|10=078|8=FIX.4.4|9=167|35=8|34=417|49=EXEC_SERVER|52=20260402-11:46:11.907|56=MINIFIX_CLIENT|6=0|11=STRESS_297|14=0|17=EXEC_1775130371907|37=GEN_1775130371907|39=0|54=1|55=IBM|150=0|151=500|10=245|8=FIX.4.4|9=168|35=8|34=418|49=EXEC_SERVER|52=20260402-11:46:11.909|56=MINIFIX_CLIENT|6=0|11=STRESS_298|14=0|17=EXEC_1775130371909|37=GEN_1775130371909|39=0|54=2|55=GOOG|150=0|151=100|10=079|8=FIX.4.4|9=174|35=8|34=419|49=EXEC_SERVER|52=20260402-11:46:11.911|56=MINIFIX_CLIENT|6=103|11=STRESS_299|14=200|17=EXEC-1a640ea4|31=103|32=200|37=ORD_3ce7fb1f|39=2|54=2|55=MSFT|150=F|151=0|10=131|8=FIX.4.4|9=168|35=8|34=420|49=EXEC_SERVER|52=20260402-11:46:11.912|56=MINIFIX_CLIENT|6=0|11=STRESS_299|14=0|17=EXEC_1775130371912|37=GEN_1775130371912|39=0|54=1|55=MSFT|150=0|151=200|10=069|8=FIX.4.4|9=167|35=8|34=421|49=EXEC_SERVER|52=20260402-11:46:11.914|56=MINIFIX_CLIENT|6=0|11=STRESS_300|14=0|17=EXEC_1775130371914|37=GEN_1775130371914|39=0|54=2|55=IBM|150=0|151=500|10=220|8=FIX.4.4|9=168|35=8|34=422|49=EXEC_SERVER|52=20260402-11:46:11.916|56=MINIFIX_CLIENT|6=0|11=STRESS_301|14=0|17=EXEC_1775130371916|37=GEN_1775130371916|39=0|54=1|55=GOOG|150=0|151=100|10=052|8=FIX.4.4|9=168|35=8|34=423|49=EXEC_SERVER|52=20260402-11:46:11.919|56=MINIFIX_CLIENT|6=0|11=STRESS_302|14=0|17=EXEC_1775130371919|37=GEN_1775130371919|39=0|54=2|55=MSFT|150=0|151=200|10=079|8=FIX.4.4|9=173|35=8|34=424|49=EXEC_SERVER|52=20260402-11:46:11.921|56=MINIFIX_CLIENT|6=102|11=STRESS_303|14=500|17=EXEC-ad06743f|31=102|32=500|37=ORD_fa55fa31|39=2|54=2|55=IBM|150=F|151=0|10=231|8=FIX.4.4|9=167|35=8|34=425|49=EXEC_SERVER|52=20260402-11:46:11.921|56=MINIFIX_CLIENT|6=0|11=STRESS_303|14=0|17=EXEC_1775130371921|37=GEN_1775130371921|39=0|54=1|55=IBM|150=0|151=500|10=220|8=FIX.4.4|9=168|35=8|34=426|49=EXEC_SERVER|52=20260402-11:46:11.924|56=MINIFIX_CLIENT|6=0|11=STRESS_304|14=0|17=EXEC_1775130371924|37=GEN_1775130371924|39=0|54=2|55=GOOG|150=0|151=100|10=057|8=FIX.4.4|9=174|35=8|34=427|49=EXEC_SERVER|52=20260402-11:46:11.927|56=MINIFIX_CLIENT|6=101|11=STRESS_305|14=200|17=EXEC-5f8f7bb2|31=101|32=200|37=ORD_89d571bc|39=2|54=2|55=MSFT|150=F|151=0|10=095|8=FIX.4.4|9=168|35=8|34=428|49=EXEC_SERVER|52=20260402-11:46:11.927|56=MINIFIX_CLIENT|6=0|11=STRESS_305|14=0|17=EXEC_1775130371927|37=GEN_1775130371927|39=0|54=1|55=MSFT|150=0|151=200|10=083|8=FIX.4.4|9=173|35=8|34=429|49=EXEC_SERVER|52=20260402-11:46:11.929|56=MINIFIX_CLIENT|6=101|11=STRESS_306|14=500|17=EXEC-ef0341b5|31=101|32=500|37=ORD_a62fde90|39=2|54=1|55=IBM|150=F|151=0|10=244|8=FIX.4.4|9=167|35=8|34=430|49=EXEC_SERVER|52=20260402-11:46:11.930|56=MINIFIX_CLIENT|6=0|11=STRESS_306|14=0|17=EXEC_1775130371930|37=GEN_1775130371930|39=0|54=2|55=IBM|150=0|151=500|10=220|8=FIX.4.4|9=168|35=8|34=431|49=EXEC_SERVER|52=20260402-11:46:11.932|56=MINIFIX_CLIENT|6=0|11=STRESS_307|14=0|17=EXEC_1775130371932|37=GEN_1775130371932|39=0|54=1|55=GOOG|150=0|151=100|10=052|8=FIX.4.4|9=168|35=8|34=432|49=EXEC_SERVER|52=20260402-11:46:11.934|56=MINIFIX_CLIENT|6=0|11=STRESS_308|14=0|17=EXEC_1775130371934|37=GEN_1775130371934|39=0|54=2|55=MSFT|150=0|151=200|10=076|8=FIX.4.4|9=173|35=8|34=433|49=EXEC_SERVER|52=20260402-11:46:11.936|56=MINIFIX_CLIENT|6=103|11=STRESS_309|14=500|17=EXEC-2783dc23|31=103|32=500|37=ORD_3111e89d|39=2|54=2|55=IBM|150=F|151=0|10=106|8=FIX.4.4|9=167|35=8|34=434|49=EXEC_SERVER|52=20260402-11:46:11.937|56=MINIFIX_CLIENT|6=0|11=STRESS_309|14=0|17=EXEC_1775130371937|37=GEN_1775130371937|39=0|54=1|55=IBM|150=0|151=500|10=247|8=FIX.4.4|9=168|35=8|34=435|49=EXEC_SERVER|52=20260402-11:46:11.940|56=MINIFIX_CLIENT|6=0|11=STRESS_310|14=0|17=EXEC_1775130371940|37=GEN_1775130371940|39=0|54=2|55=GOOG|150=0|151=100|10=048|8=FIX.4.4|9=168|35=8|34=436|49=EXEC_SERVER|52=20260402-11:46:11.942|56=MINIFIX_CLIENT|6=0|11=STRESS_311|14=0|17=EXEC_1775130371942|37=GEN_1775130371942|39=0|54=1|55=MSFT|150=0|151=200|10=070|8=FIX.4.4|9=167|35=8|34=437|49=EXEC_SERVER|52=20260402-11:46:11.943|56=MINIFIX_CLIENT|6=0|11=STRESS_312|14=0|17=EXEC_1775130371943|37=GEN_1775130371943|39=0|54=2|55=IBM|150=0|151=500|10=236|8=FIX.4.4|9=174|35=8|34=438|49=EXEC_SERVER|52=20260402-11:46:11.946|56=MINIFIX_CLIENT|6=102|11=STRESS_313|14=100|17=EXEC-c37998c8|31=102|32=100|37=ORD_e79c43a6|39=2|54=2|55=GOOG|150=F|151=0|10=254|8=FIX.4.4|9=168|35=8|34=439|49=EXEC_SERVER|52=20260402-11:46:11.946|56=MINIFIX_CLIENT|6=0|11=STRESS_313|14=0|17=EXEC_1775130371946|37=GEN_1775130371946|39=0|54=1|55=GOOG|150=0|151=100|10=072|8=FIX.4.4|9=168|35=8|34=440|49=EXEC_SERVER|52=20260402-11:46:11.947|56=MINIFIX_CLIENT|6=0|11=STRESS_314|14=0|17=EXEC_1775130371947|37=GEN_1775130371947|39=0|54=2|55=MSFT|150=0|151=200|10=084|8=FIX.4.4|9=173|35=8|34=441|49=EXEC_SERVER|52=20260402-11:46:11.950|56=MINIFIX_CLIENT|6=101|11=STRESS_315|14=500|17=EXEC-7bd2cfb4|31=101|32=500|37=ORD_51bbf177|39=2|54=2|55=IBM|150=F|151=0|10=027|8=FIX.4.4|9=167|35=8|34=442|49=EXEC_SERVER|52=20260402-11:46:11.951|56=MINIFIX_CLIENT|6=0|11=STRESS_315|14=0|17=EXEC_1775130371951|37=GEN_1775130371951|39=0|54=1|55=IBM|150=0|151=500|10=231|8=FIX.4.4|9=174|35=8|34=443|49=EXEC_SERVER|52=20260402-11:46:11.953|56=MINIFIX_CLIENT|6=101|11=STRESS_316|14=100|17=EXEC-4cee0894|31=101|32=100|37=ORD_1171bc6a|39=2|54=1|55=GOOG|150=F|151=0|10=012|8=FIX.4.4|9=168|35=8|34=444|49=EXEC_SERVER|52=20260402-11:46:11.954|56=MINIFIX_CLIENT|6=0|11=STRESS_316|14=0|17=EXEC_1775130371954|37=GEN_1775130371954|39=0|54=2|55=GOOG|150=0|151=100|10=069|8=FIX.4.4|9=168|35=8|34=445|49=EXEC_SERVER|52=20260402-11:46:11.955|56=MINIFIX_CLIENT|6=0|11=STRESS_317|14=0|17=EXEC_1775130371955|37=GEN_1775130371955|39=0|54=1|55=MSFT|150=0|151=200|10=088|8=FIX.4.4|9=167|35=8|34=446|49=EXEC_SERVER|52=20260402-11:46:11.957|56=MINIFIX_CLIENT|6=0|11=STRESS_318|14=0|17=EXEC_1775130371957|37=GEN_1775130371957|39=0|54=2|55=IBM|150=0|151=500|10=001|8=FIX.4.4|9=174|35=8|34=447|49=EXEC_SERVER|52=20260402-11:46:11.959|56=MINIFIX_CLIENT|6=103|11=STRESS_319|14=100|17=EXEC-b0ad8f47|31=103|32=100|37=ORD_83723c2a|39=2|54=2|55=GOOG|150=F|151=0|10=031|8=FIX.4.4|9=168|35=8|34=448|49=EXEC_SERVER|52=20260402-11:46:11.960|56=MINIFIX_CLIENT|6=0|11=STRESS_319|14=0|17=EXEC_1775130371960|37=GEN_1775130371960|39=0|54=1|55=GOOG|150=0|151=100|10=066|8=FIX.4.4|9=168|35=8|34=449|49=EXEC_SERVER|52=20260402-11:46:11.962|56=MINIFIX_CLIENT|6=0|11=STRESS_320|14=0|17=EXEC_1775130371962|37=GEN_1775130371962|39=0|54=2|55=MSFT|150=0|151=200|10=081|8=FIX.4.4|9=167|35=8|34=450|49=EXEC_SERVER|52=20260402-11:46:11.963|56=MINIFIX_CLIENT|6=0|11=STRESS_321|14=0|17=EXEC_1775130371963|37=GEN_1775130371963|39=0|54=1|55=IBM|150=0|151=500|10=236|8=FIX.4.4|9=168|35=8|34=451|49=EXEC_SERVER|52=20260402-11:46:11.965|56=MINIFIX_CLIENT|6=0|11=STRESS_322|14=0|17=EXEC_1775130371965|37=GEN_1775130371964|39=0|54=2|55=GOOG|150=0|151=100|10=069|8=FIX.4.4|9=174|35=8|34=452|49=EXEC_SERVER|52=20260402-11:46:11.966|56=MINIFIX_CLIENT|6=102|11=STRESS_323|14=200|17=EXEC-81d17db5|31=102|32=200|37=ORD_32f07137|39=2|54=2|55=MSFT|150=F|151=0|10=194|8=FIX.4.4|9=168|35=8|34=453|49=EXEC_SERVER|52=20260402-11:46:11.967|56=MINIFIX_CLIENT|6=0|11=STRESS_323|14=0|17=EXEC_1775130371967|37=GEN_1775130371967|39=0|54=1|55=MSFT|150=0|151=200|10=093|8=FIX.4.4|9=167|35=8|34=454|49=EXEC_SERVER|52=20260402-11:46:11.969|56=MINIFIX_CLIENT|6=0|11=STRESS_324|14=0|17=EXEC_1775130371969|37=GEN_1775130371969|39=0|54=2|55=IBM|150=0|151=500|10=006|8=FIX.4.4|9=174|35=8|34=455|49=EXEC_SERVER|52=20260402-11:46:11.972|56=MINIFIX_CLIENT|6=101|11=STRESS_325|14=100|17=EXEC-48467938|31=101|32=100|37=ORD_a58d3d2f|39=2|54=2|55=GOOG|150=F|151=0|10=199|8=FIX.4.4|9=168|35=8|34=456|49=EXEC_SERVER|52=20260402-11:46:11.972|56=MINIFIX_CLIENT|6=0|11=STRESS_325|14=0|17=EXEC_1775130371972|37=GEN_1775130371972|39=0|54=1|55=GOOG|150=0|151=100|10=071|8=FIX.4.4|9=174|35=8|34=457|49=EXEC_SERVER|52=20260402-11:46:11.974|56=MINIFIX_CLIENT|6=101|11=STRESS_326|14=200|17=EXEC-96246cb5|31=101|32=200|37=ORD_75defadc|39=2|54=1|55=MSFT|150=F|151=0|10=145|8=FIX.4.4|9=168|35=8|34=458|49=EXEC_SERVER|52=20260402-11:46:11.974|56=MINIFIX_CLIENT|6=0|11=STRESS_326|14=0|17=EXEC_1775130371974|37=GEN_1775130371974|39=0|54=2|55=MSFT|150=0|151=200|10=096|8=FIX.4.4|9=167|35=8|34=459|49=EXEC_SERVER|52=20260402-11:46:11.976|56=MINIFIX_CLIENT|6=0|11=STRESS_327|14=0|17=EXEC_1775130371976|37=GEN_1775130371976|39=0|54=1|55=IBM|150=0|151=500|10=007|8=FIX.4.4|9=168|35=8|34=460|49=EXEC_SERVER|52=20260402-11:46:11.979|56=MINIFIX_CLIENT|6=0|11=STRESS_328|14=0|17=EXEC_1775130371979|37=GEN_1775130371979|39=0|54=2|55=GOOG|150=0|151=100|10=091|8=FIX.4.4|9=174|35=8|34=461|49=EXEC_SERVER|52=20260402-11:46:11.981|56=MINIFIX_CLIENT|6=103|11=STRESS_329|14=200|17=EXEC-877f32da|31=103|32=200|37=ORD_858c5135|39=2|54=2|55=MSFT|150=F|151=0|10=214|8=FIX.4.4|9=168|35=8|34=462|49=EXEC_SERVER|52=20260402-11:46:11.981|56=MINIFIX_CLIENT|6=0|11=STRESS_329|14=0|17=EXEC_1775130371981|37=GEN_1775130371981|39=0|54=1|55=MSFT|150=0|151=200|10=087|8=FIX.4.4|9=167|35=8|34=463|49=EXEC_SERVER|52=20260402-11:46:11.984|56=MINIFIX_CLIENT|6=0|11=STRESS_330|14=0|17=EXEC_1775130371984|37=GEN_1775130371984|39=0|54=2|55=IBM|150=0|151=500|10=250|8=FIX.4.4|9=168|35=8|34=464|49=EXEC_SERVER|52=20260402-11:46:11.985|56=MINIFIX_CLIENT|6=0|11=STRESS_331|14=0|17=EXEC_1775130371985|37=GEN_1775130371985|39=0|54=1|55=GOOG|150=0|151=100|10=079|8=FIX.4.4|9=168|35=8|34=465|49=EXEC_SERVER|52=20260402-11:46:11.987|56=MINIFIX_CLIENT|6=0|11=STRESS_332|14=0|17=EXEC_1775130371987|37=GEN_1775130371987|39=0|54=2|55=MSFT|150=0|151=200|10=103|8=FIX.4.4|9=173|35=8|34=466|49=EXEC_SERVER|52=20260402-11:46:11.989|56=MINIFIX_CLIENT|6=102|11=STRESS_333|14=500|17=EXEC-4e46d710|31=102|32=500|37=ORD_50029461|39=2|54=2|55=IBM|150=F|151=0|10=013|8=FIX.4.4|9=167|35=8|34=467|49=EXEC_SERVER|52=20260402-11:46:11.989|56=MINIFIX_CLIENT|6=0|11=STRESS_333|14=0|17=EXEC_1775130371989|37=GEN_1775130371989|39=0|54=1|55=IBM|150=0|151=500|10=015|8=FIX.4.4|9=168|35=8|34=468|49=EXEC_SERVER|52=20260402-11:46:11.991|56=MINIFIX_CLIENT|6=0|11=STRESS_334|14=0|17=EXEC_1775130371991|37=GEN_1775130371991|39=0|54=2|55=GOOG|150=0|151=100|10=078|8=FIX.4.4|9=174|35=8|34=469|49=EXEC_SERVER|52=20260402-11:46:11.993|56=MINIFIX_CLIENT|6=101|11=STRESS_335|14=200|17=EXEC-83406e69|31=101|32=200|37=ORD_f4305ab9|39=2|54=2|55=MSFT|150=F|151=0|10=213|8=FIX.4.4|9=168|35=8|34=470|49=EXEC_SERVER|52=20260402-11:46:11.994|56=MINIFIX_CLIENT|6=0|11=STRESS_335|14=0|17=EXEC_1775130371994|37=GEN_1775130371994|39=0|54=1|55=MSFT|150=0|151=200|10=095|8=FIX.4.4|9=173|35=8|34=471|49=EXEC_SERVER|52=20260402-11:46:11.995|56=MINIFIX_CLIENT|6=101|11=STRESS_336|14=500|17=EXEC-e456b012|31=101|32=500|37=ORD_92e49c3a|39=2|54=1|55=IBM|150=F|151=0|10=153|8=FIX.4.4|9=167|35=8|34=472|49=EXEC_SERVER|52=20260402-11:46:11.996|56=MINIFIX_CLIENT|6=0|11=STRESS_336|14=0|17=EXEC_1775130371996|37=GEN_1775130371996|39=0|54=2|55=IBM|150=0|151=500|10=009|8=FIX.4.4|9=168|35=8|34=473|49=EXEC_SERVER|52=20260402-11:46:11.998|56=MINIFIX_CLIENT|6=0|11=STRESS_337|14=0|17=EXEC_1775130371998|37=GEN_1775130371998|39=0|54=1|55=GOOG|150=0|151=100|10=097|8=FIX.4.4|9=168|35=8|34=474|49=EXEC_SERVER|52=20260402-11:46:12.001|56=MINIFIX_CLIENT|6=0|11=STRESS_338|14=0|17=EXEC_1775130372001|37=GEN_1775130372001|39=0|54=2|55=MSFT|150=0|151=200|10=043|8=FIX.4.4|9=173|35=8|34=475|49=EXEC_SERVER|52=20260402-11:46:12.003|56=MINIFIX_CLIENT|6=103|11=STRESS_339|14=500|17=EXEC-7e17ea50|31=103|32=500|37=ORD_2ef9750a|39=2|54=2|55=IBM|150=F|151=0|10=199|8=FIX.4.4|9=167|35=8|34=476|49=EXEC_SERVER|52=20260402-11:46:12.004|56=MINIFIX_CLIENT|6=0|11=STRESS_339|14=0|17=EXEC_1775130372004|37=GEN_1775130372004|39=0|54=1|55=IBM|150=0|151=500|10=214|8=FIX.4.4|9=168|35=8|34=477|49=EXEC_SERVER|52=20260402-11:46:12.005|56=MINIFIX_CLIENT|6=0|11=STRESS_340|14=0|17=EXEC_1775130372005|37=GEN_1775130372005|39=0|54=2|55=GOOG|150=0|151=100|10=036|8=FIX.4.4|9=168|35=8|34=478|49=EXEC_SERVER|52=20260402-11:46:12.007|56=MINIFIX_CLIENT|6=0|11=STRESS_341|14=0|17=EXEC_1775130372007|37=GEN_1775130372007|39=0|54=1|55=MSFT|150=0|151=200|10=058|8=FIX.4.4|9=167|35=8|34=479|49=EXEC_SERVER|52=20260402-11:46:12.010|56=MINIFIX_CLIENT|6=0|11=STRESS_342|14=0|17=EXEC_1775130372010|37=GEN_1775130372010|39=0|54=2|55=IBM|150=0|151=500|10=203|8=FIX.4.4|9=174|35=8|34=480|49=EXEC_SERVER|52=20260402-11:46:12.011|56=MINIFIX_CLIENT|6=102|11=STRESS_343|14=100|17=EXEC-2626b4f0|31=102|32=100|37=ORD_d79cecd4|39=2|54=2|55=GOOG|150=F|151=0|10=057|8=FIX.4.4|9=168|35=8|34=481|49=EXEC_SERVER|52=20260402-11:46:12.012|56=MINIFIX_CLIENT|6=0|11=STRESS_343|14=0|17=EXEC_1775130372012|37=GEN_1775130372012|39=0|54=1|55=GOOG|150=0|151=100|10=027|8=FIX.4.4|9=168|35=8|34=482|49=EXEC_SERVER|52=20260402-11:46:12.014|56=MINIFIX_CLIENT|6=0|11=STRESS_344|14=0|17=EXEC_1775130372014|37=GEN_1775130372014|39=0|54=2|55=MSFT|150=0|151=200|10=051|8=FIX.4.4|9=173|35=8|34=483|49=EXEC_SERVER|52=20260402-11:46:12.016|56=MINIFIX_CLIENT|6=101|11=STRESS_345|14=500|17=EXEC-3c8d241c|31=101|32=500|37=ORD_e08f4f8e|39=2|54=2|55=IBM|150=F|151=0|10=247|8=FIX.4.4|9=167|35=8|34=484|49=EXEC_SERVER|52=20260402-11:46:12.017|56=MINIFIX_CLIENT|6=0|11=STRESS_345|14=0|17=EXEC_1775130372017|37=GEN_1775130372017|39=0|54=1|55=IBM|150=0|151=500|10=222|8=FIX.4.4|9=174|35=8|34=485|49=EXEC_SERVER|52=20260402-11:46:12.020|56=MINIFIX_CLIENT|6=101|11=STRESS_346|14=100|17=EXEC-7c4f6156|31=101|32=100|37=ORD_94ac9c93|39=2|54=1|55=GOOG|150=F|151=0|10=234|8=FIX.4.4|9=168|35=8|34=486|49=EXEC_SERVER|52=20260402-11:46:12.020|56=MINIFIX_CLIENT|6=0|11=STRESS_346|14=0|17=EXEC_1775130372020|37=GEN_1775130372020|39=0|54=2|55=GOOG|150=0|151=100|10=033|8=FIX.4.4|9=168|35=8|34=487|49=EXEC_SERVER|52=20260402-11:46:12.021|56=MINIFIX_CLIENT|6=0|11=STRESS_347|14=0|17=EXEC_1775130372021|37=GEN_1775130372021|39=0|54=1|55=MSFT|150=0|151=200|10=052|8=FIX.4.4|9=167|35=8|34=488|49=EXEC_SERVER|52=20260402-11:46:12.023|56=MINIFIX_CLIENT|6=0|11=STRESS_348|14=0|17=EXEC_1775130372023|37=GEN_1775130372023|39=0|54=2|55=IBM|150=0|151=500|10=221|8=FIX.4.4|9=174|35=8|34=489|49=EXEC_SERVER|52=20260402-11:46:12.025|56=MINIFIX_CLIENT|6=103|11=STRESS_349|14=100|17=EXEC-dfa14bbe|31=103|32=100|37=ORD_17d35dd8|39=2|54=2|55=GOOG|150=F|151=0|10=169|8=FIX.4.4|9=168|35=8|34=490|49=EXEC_SERVER|52=20260402-11:46:12.026|56=MINIFIX_CLIENT|6=0|11=STRESS_349|14=0|17=EXEC_1775130372026|37=GEN_1775130372026|39=0|54=1|55=GOOG|150=0|151=100|10=048|8=FIX.4.4|9=168|35=8|34=491|49=EXEC_SERVER|52=20260402-11:46:12.029|56=MINIFIX_CLIENT|6=0|11=STRESS_350|14=0|17=EXEC_1775130372029|37=GEN_1775130372029|39=0|54=2|55=MSFT|150=0|151=200|10=066|8=FIX.4.4|9=167|35=8|34=492|49=EXEC_SERVER|52=20260402-11:46:12.031|56=MINIFIX_CLIENT|6=0|11=STRESS_351|14=0|17=EXEC_1775130372031|37=GEN_1775130372031|39=0|54=1|55=IBM|150=0|151=500|10=206|8=FIX.4.4|9=168|35=8|34=493|49=EXEC_SERVER|52=20260402-11:46:12.033|56=MINIFIX_CLIENT|6=0|11=STRESS_352|14=0|17=EXEC_1775130372033|37=GEN_1775130372033|39=0|54=2|55=GOOG|150=0|151=100|10=040|8=FIX.4.4|9=174|35=8|34=494|49=EXEC_SERVER|52=20260402-11:46:12.035|56=MINIFIX_CLIENT|6=102|11=STRESS_353|14=200|17=EXEC-243db86b|31=102|32=200|37=ORD_c1a2f1b7|39=2|54=2|55=MSFT|150=F|151=0|10=072|8=FIX.4.4|9=168|35=8|34=495|49=EXEC_SERVER|52=20260402-11:46:12.035|56=MINIFIX_CLIENT|6=0|11=STRESS_353|14=0|17=EXEC_1775130372035|37=GEN_1775130372035|39=0|54=1|55=MSFT|150=0|151=200|10=063|8=FIX.4.4|9=167|35=8|34=496|49=EXEC_SERVER|52=20260402-11:46:12.038|56=MINIFIX_CLIENT|6=0|11=STRESS_354|14=0|17=EXEC_1775130372038|37=GEN_1775130372038|39=0|54=2|55=IBM|150=0|151=500|10=235|8=FIX.4.4|9=174|35=8|34=497|49=EXEC_SERVER|52=20260402-11:46:12.041|56=MINIFIX_CLIENT|6=101|11=STRESS_355|14=100|17=EXEC-22bc3e1e|31=101|32=100|37=ORD_9e5a5cb4|39=2|54=2|55=GOOG|150=F|151=0|10=107|8=FIX.4.4|9=168|35=8|34=498|49=EXEC_SERVER|52=20260402-11:46:12.041|56=MINIFIX_CLIENT|6=0|11=STRESS_355|14=0|17=EXEC_1775130372041|37=GEN_1775130372041|39=0|54=1|55=GOOG|150=0|151=100|10=044|8=FIX.4.4|9=174|35=8|34=499|49=EXEC_SERVER|52=20260402-11:46:12.044|56=MINIFIX_CLIENT|6=101|11=STRESS_356|14=200|17=EXEC-a7eeaa98|31=101|32=200|37=ORD_53a41264|39=2|54=1|55=MSFT|150=F|151=0|10=038|8=FIX.4.4|9=168|35=8|34=500|49=EXEC_SERVER|52=20260402-11:46:12.044|56=MINIFIX_CLIENT|6=0|11=STRESS_356|14=0|17=EXEC_1775130372044|37=GEN_1775130372044|39=0|54=2|55=MSFT|150=0|151=200|10=054|8=FIX.4.4|9=167|35=8|34=501|49=EXEC_SERVER|52=20260402-11:46:12.047|56=MINIFIX_CLIENT|6=0|11=STRESS_357|14=0|17=EXEC_1775130372047|37=GEN_1775130372047|39=0|54=1|55=IBM|150=0|151=500|10=224|8=FIX.4.4|9=168|35=8|34=502|49=EXEC_SERVER|52=20260402-11:46:12.049|56=MINIFIX_CLIENT|6=0|11=STRESS_358|14=0|17=EXEC_1775130372049|37=GEN_1775130372049|39=0|54=2|55=GOOG|150=0|151=100|10=058|8=FIX.4.4|9=174|35=8|34=503|49=EXEC_SERVER|52=20260402-11:46:12.053|56=MINIFIX_CLIENT|6=103|11=STRESS_359|14=200|17=EXEC-16f0bd77|31=103|32=200|37=ORD_d833733b|39=2|54=2|55=MSFT|150=F|151=0|10=243|8=FIX.4.4|9=168|35=8|34=504|49=EXEC_SERVER|52=20260402-11:46:12.053|56=MINIFIX_CLIENT|6=0|11=STRESS_359|14=0|17=EXEC_1775130372053|37=GEN_1775130372053|39=0|54=1|55=MSFT|150=0|151=200|10=060|8=FIX.4.4|9=167|35=8|34=505|49=EXEC_SERVER|52=20260402-11:46:12.056|56=MINIFIX_CLIENT|6=0|11=STRESS_360|14=0|17=EXEC_1775130372056|37=GEN_1775130372056|39=0|54=2|55=IBM|150=0|151=500|10=223|8=FIX.4.4|9=168|35=8|34=506|49=EXEC_SERVER|52=20260402-11:46:12.059|56=MINIFIX_CLIENT|6=0|11=STRESS_361|14=0|17=EXEC_1775130372059|37=GEN_1775130372059|39=0|54=1|55=GOOG|150=0|151=100|10=058|8=FIX.4.4|9=168|35=8|34=507|49=EXEC_SERVER|52=20260402-11:46:12.061|56=MINIFIX_CLIENT|6=0|11=STRESS_362|14=0|17=EXEC_1775130372061|37=GEN_1775130372061|39=0|54=2|55=MSFT|150=0|151=200|10=055|8=FIX.4.4|9=173|35=8|34=508|49=EXEC_SERVER|52=20260402-11:46:12.064|56=MINIFIX_CLIENT|6=102|11=STRESS_363|14=500|17=EXEC-2b8e2c71|31=102|32=500|37=ORD_094be4d4|39=2|54=2|55=IBM|150=F|151=0|10=194|8=FIX.4.4|9=167|35=8|34=509|49=EXEC_SERVER|52=20260402-11:46:12.064|56=MINIFIX_CLIENT|6=0|11=STRESS_363|14=0|17=EXEC_1775130372064|37=GEN_1775130372064|39=0|54=1|55=IBM|150=0|151=500|10=226|8=FIX.4.4|9=168|35=8|34=510|49=EXEC_SERVER|52=20260402-11:46:12.067|56=MINIFIX_CLIENT|6=0|11=STRESS_364|14=0|17=EXEC_1775130372067|37=GEN_1775130372067|39=0|54=2|55=GOOG|150=0|151=100|10=054|8=FIX.4.4|9=174|35=8|34=511|49=EXEC_SERVER|52=20260402-11:46:12.069|56=MINIFIX_CLIENT|6=101|11=STRESS_365|14=200|17=EXEC-8125af5a|31=101|32=200|37=ORD_fdea6657|39=2|54=2|55=MSFT|150=F|151=0|10=085|8=FIX.4.4|9=168|35=8|34=512|49=EXEC_SERVER|52=20260402-11:46:12.070|56=MINIFIX_CLIENT|6=0|11=STRESS_365|14=0|17=EXEC_1775130372070|37=GEN_1775130372070|39=0|54=1|55=MSFT|150=0|151=200|10=053|8=FIX.4.4|9=173|35=8|34=513|49=EXEC_SERVER|52=20260402-11:46:12.072|56=MINIFIX_CLIENT|6=101|11=STRESS_366|14=500|17=EXEC-9f12c1f6|31=101|32=500|37=ORD_2fae7897|39=2|54=1|55=IBM|150=F|151=0|10=206|8=FIX.4.4|9=167|35=8|34=514|49=EXEC_SERVER|52=20260402-11:46:12.073|56=MINIFIX_CLIENT|6=0|11=STRESS_366|14=0|17=EXEC_1775130372073|37=GEN_1775130372073|39=0|54=2|55=IBM|150=0|151=500|10=226|8=FIX.4.4|9=168|35=8|34=515|49=EXEC_SERVER|52=20260402-11:46:12.075|56=MINIFIX_CLIENT|6=0|11=STRESS_367|14=0|17=EXEC_1775130372075|37=GEN_1775130372075|39=0|54=1|55=GOOG|150=0|151=100|10=058|8=FIX.4.4|9=168|35=8|34=516|49=EXEC_SERVER|52=20260402-11:46:12.078|56=MINIFIX_CLIENT|6=0|11=STRESS_368|14=0|17=EXEC_1775130372078|37=GEN_1775130372078|39=0|54=2|55=MSFT|150=0|151=200|10=085|8=FIX.4.4|9=173|35=8|34=517|49=EXEC_SERVER|52=20260402-11:46:12.080|56=MINIFIX_CLIENT|6=103|11=STRESS_369|14=500|17=EXEC-445b50bc|31=103|32=500|37=ORD_56199466|39=2|54=2|55=IBM|150=F|151=0|10=065|8=FIX.4.4|9=167|35=8|34=518|49=EXEC_SERVER|52=20260402-11:46:12.080|56=MINIFIX_CLIENT|6=0|11=STRESS_369|14=0|17=EXEC_1775130372080|37=GEN_1775130372080|39=0|54=1|55=IBM|150=0|151=500|10=226|8=FIX.4.4|9=168|35=8|34=519|49=EXEC_SERVER|52=20260402-11:46:12.083|56=MINIFIX_CLIENT|6=0|11=STRESS_370|14=0|17=EXEC_1775130372083|37=GEN_1775130372083|39=0|54=2|55=GOOG|150=0|151=100|10=054|8=FIX.4.4|9=168|35=8|34=520|49=EXEC_SERVER|52=20260402-11:46:12.084|56=MINIFIX_CLIENT|6=0|11=STRESS_371|14=0|17=EXEC_1775130372084|37=GEN_1775130372084|39=0|54=1|55=MSFT|150=0|151=200|10=064|8=FIX.4.4|9=167|35=8|34=521|49=EXEC_SERVER|52=20260402-11:46:12.085|56=MINIFIX_CLIENT|6=0|11=STRESS_372|14=0|17=EXEC_1775130372085|37=GEN_1775130372085|39=0|54=2|55=IBM|150=0|151=500|10=230|8=FIX.4.4|9=174|35=8|34=522|49=EXEC_SERVER|52=20260402-11:46:12.088|56=MINIFIX_CLIENT|6=102|11=STRESS_373|14=100|1