8=FIX.4.4|9=80|35=A|34=1|49=EXEC_SERVER|52=20260303-03:42:33.436|56=MINIFIX_CLIENT|98=0|108=30|10=135|8=FIX.4.4|9=68|35=0|34=2|49=EXEC_SERVER|52=20260303-03:43:04.423|56=MINIFIX_CLIENT|10=095|8=FIX.4.4|9=166|35=8|34=3|49=EXEC_SERVER|52=20260303-03:43:11.192|56=MINIFIX_CLIENT|6=0|11=2005902478|14=0|17=EXEC_1772509391187|37=GEN_1772509391178|39=0|54=1|55=GOOG|150=0|151=100|10=007|8=FIX.4.4|9=166|35=8|34=4|49=EXEC_SERVER|52=20260303-03:43:26.824|56=MINIFIX_CLIENT|6=0|11=2005902479|14=0|17=EXEC_1772509406824|37=GEN_1772509406824|39=0|54=2|55=GOOG|150=0|151=100|10=008|8=FIX.4.4|9=68|35=0|34=5|49=EXEC_SERVER|52=20260303-03:43:57.436|56=MINIFIX_CLIENT|10=110|8=FIX.4.4|9=68|35=0|34=6|49=EXEC_SERVER|52=20260303-03:44:27.434|56=MINIFIX_CLIENT|10=107|8=FIX.4.4|9=68|35=0|34=7|49=EXEC_SERVER|52=20260303-03:44:58.432|56=MINIFIX_CLIENT|10=110|8=FIX.4.4|9=68|35=0|34=8|49=EXEC_SERVER|52=20260303-03:45:28.425|56=MINIFIX_CLIENT|10=111|8=FIX.4.4|9=68|35=0|34=9|49=EXEC_SERVER|52=20260303-03:45:58.431|56=MINIFIX_CLIENT|10=112|8=FIX.4.4|9=69|35=0|34=10|49=EXEC_SERVER|52=20260303-03:46:28.428|56=MINIFIX_CLIENT|10=157|8=FIX.4.4|9=167|35=8|34=11|49=EXEC_SERVER|52=20260303-03:46:31.359|56=MINIFIX_CLIENT|6=0|11=2005902480|14=0|17=EXEC_1772509591359|37=GEN_1772509591359|39=0|54=1|55=GOOG|150=0|151=100|10=064|8=FIX.4.4|9=69|35=0|34=12|49=EXEC_SERVER|52=20260303-03:47:01.433|56=MINIFIX_CLIENT|10=147|8=FIX.4.4|9=69|35=0|34=13|49=EXEC_SERVER|52=20260303-03:47:32.438|56=MINIFIX_CLIENT|10=157|8=FIX.4.4|9=69|35=0|34=14|49=EXEC_SERVER|52=20260303-03:48:02.429|56=MINIFIX_CLIENT|10=156|8=FIX.4.4|9=69|35=0|34=15|49=EXEC_SERVER|52=20260303-03:48:32.436|56=MINIFIX_CLIENT|10=158|8=FIX.4.4|9=69|35=0|34=16|49=EXEC_SERVER|52=20260303-03:49:02.435|56=MINIFIX_CLIENT|10=156|8=FIX.4.4|9=69|35=0|34=17|49=EXEC_SERVER|52=20260303-03:49:33.422|56=MINIFIX_CLIENT|10=157|8=FIX.4.4|9=69|35=0|34=18|49=EXEC_SERVER|52=20260303-03:50:03.435|56=MINIFIX_CLIENT|10=151|8=FIX.4.4|9=69|35=0|34=19|49=EXEC_SERVER|52=20260303-03:50:34.437|56=MINIFIX_CLIENT|10=158|8=FIX.4.4|9=69|35=0|34=20|49=EXEC_SERVER|52=20260303-03:51:04.432|56=MINIFIX_CLIENT|10=143|8=FIX.4.4|9=69|35=0|34=21|49=EXEC_SERVER|52=20260303-03:51:34.434|56=MINIFIX_CLIENT|10=149|8=FIX.4.4|9=69|35=0|34=22|49=EXEC_SERVER|52=20260303-03:52:04.425|56=MINIFIX_CLIENT|10=148|8=FIX.4.4|9=69|35=0|34=23|49=EXEC_SERVER|52=20260303-03:52:34.425|56=MINIFIX_CLIENT|10=152|8=FIX.4.4|9=69|35=0|34=24|49=EXEC_SERVER|52=20260303-03:53:04.427|56=MINIFIX_CLIENT|10=153|8=FIX.4.4|9=69|35=0|34=25|49=EXEC_SERVER|52=20260303-03:53:34.431|56=MINIFIX_CLIENT|10=152|8=FIX.4.4|9=69|35=0|34=26|49=EXEC_SERVER|52=20260303-03:54:04.428|56=MINIFIX_CLIENT|10=157|8=FIX.4.4|9=69|35=0|34=27|49=EXEC_SERVER|52=20260303-03:54:34.428|56=MINIFIX_CLIENT|10=161|8=FIX.4.4|9=69|35=0|34=28|49=EXEC_SERVER|52=20260303-03:55:04.428|56=MINIFIX_CLIENT|10=160|8=FIX.4.4|9=69|35=0|34=29|49=EXEC_SERVER|52=20260303-03:55:34.429|56=MINIFIX_CLIENT|10=165|8=FIX.4.4|9=69|35=0|34=30|49=EXEC_SERVER|52=20260303-03:56:04.429|56=MINIFIX_CLIENT|10=155|8=FIX.4.4|9=69|35=0|34=31|49=EXEC_SERVER|52=20260303-03:56:34.427|56=MINIFIX_CLIENT|10=157|8=FIX.4.4|9=69|35=0|34=32|49=EXEC_SERVER|52=20260303-03:57:04.426|56=MINIFIX_CLIENT|10=155|8=FIX.4.4|9=69|35=0|34=33|49=EXEC_SERVER|52=20260303-03:57:34.428|56=MINIFIX_CLIENT|10=161|8=FIX.4.4|9=69|35=0|34=34|49=EXEC_SERVER|52=20260303-03:58:04.437|56=MINIFIX_CLIENT|10=160|8=FIX.4.4|9=69|35=0|34=35|49=EXEC_SERVER|52=20260303-03:58:35.424|56=MINIFIX_CLIENT|10=161|8=FIX.4.4|9=69|35=0|34=36|49=EXEC_SERVER|52=20260303-03:59:05.436|56=MINIFIX_CLIENT|10=163|8=FIX.4.4|9=69|35=0|34=37|49=EXEC_SERVER|52=20260303-03:59:35.434|56=MINIFIX_CLIENT|10=165|8=FIX.4.4|9=69|35=0|34=38|49=EXEC_SERVER|52=20260303-04:00:05.432|56=MINIFIX_CLIENT|10=148|8=FIX.4.4|9=69|35=0|34=39|49=EXEC_SERVER|52=20260303-04:00:35.435|56=MINIFIX_CLIENT|10=155|8=FIX.4.4|9=69|35=0|34=40|49=EXEC_SERVER|52=20260303-04:01:05.438|56=MINIFIX_CLIENT|10=148|8=FIX.4.4|9=69|35=0|34=41|49=EXEC_SERVER|52=20260303-04:01:35.437|56=MINIFIX_CLIENT|10=151|