8=FIX.4.4|9=80|35=A|34=1|49=EXEC_SERVER|52=20260227-14:20:50.049|56=MINIFIX_CLIENT|98=0|108=30|10=137|8=FIX.4.4|9=164|35=8|34=2|49=EXEC_SERVER|52=20260227-14:20:53.796|56=MINIFIX_CLIENT|6=0|11=56142955|14=0|17=EXEC_1772202053795|37=GEN_1772202053793|39=0|54=1|55=GOOG|150=0|151=100|10=160|8=FIX.4.4|9=164|35=8|34=3|49=EXEC_SERVER|52=20260227-14:21:13.542|56=MINIFIX_CLIENT|6=0|11=56142956|14=0|17=EXEC_1772202073542|37=GEN_1772202073542|39=0|54=1|55=GOOG|150=0|151=100|10=134|8=FIX.4.4|9=68|35=0|34=4|49=EXEC_SERVER|52=20260227-14:21:44.419|56=MINIFIX_CLIENT|10=109|8=FIX.4.4|9=68|35=0|34=5|49=EXEC_SERVER|52=20260227-14:22:14.414|56=MINIFIX_CLIENT|10=103|8=FIX.4.4|9=68|35=0|34=6|49=EXEC_SERVER|52=20260227-14:22:44.415|56=MINIFIX_CLIENT|10=108|8=FIX.4.4|9=68|35=0|34=7|49=EXEC_SERVER|52=20260227-14:23:14.416|56=MINIFIX_CLIENT|10=108|8=FIX.4.4|9=68|35=0|34=8|49=EXEC_SERVER|52=20260227-14:23:44.409|56=MINIFIX_CLIENT|10=114|8=FIX.4.4|9=68|35=0|34=9|49=EXEC_SERVER|52=20260227-14:24:14.412|56=MINIFIX_CLIENT|10=107|8=FIX.4.4|9=69|35=0|34=10|49=EXEC_SERVER|52=20260227-14:24:44.414|56=MINIFIX_CLIENT|10=153|8=FIX.4.4|9=69|35=0|34=11|49=EXEC_SERVER|52=20260227-14:25:14.415|56=MINIFIX_CLIENT|10=153|8=FIX.4.4|9=69|35=0|34=12|49=EXEC_SERVER|52=20260227-14:25:44.406|56=MINIFIX_CLIENT|10=157|8=FIX.4.4|9=69|35=0|34=13|49=EXEC_SERVER|52=20260227-14:26:14.406|56=MINIFIX_CLIENT|10=156|8=FIX.4.4|9=69|35=0|34=14|49=EXEC_SERVER|52=20260227-14:26:44.408|56=MINIFIX_CLIENT|10=162|8=FIX.4.4|9=69|35=0|34=15|49=EXEC_SERVER|52=20260227-14:27:14.410|56=MINIFIX_CLIENT|10=154|8=FIX.4.4|9=69|35=0|34=16|49=EXEC_SERVER|52=20260227-14:27:44.408|56=MINIFIX_CLIENT|10=165|8=FIX.4.4|9=69|35=0|34=17|49=EXEC_SERVER|52=20260227-14:28:14.407|56=MINIFIX_CLIENT|10=163|8=FIX.4.4|9=165|35=8|34=18|49=EXEC_SERVER|52=20260227-14:28:34.057|56=MINIFIX_CLIENT|6=0|11=56142957|14=0|17=EXEC_1772202514057|37=GEN_1772202514057|39=0|54=1|55=GOOG|150=0|151=100|10=203|8=FIX.4.4|9=69|35=0|34=19|49=EXEC_SERVER|52=20260227-14:29:04.417|56=MINIFIX_CLIENT|10=166|8=FIX.4.4|9=69|35=0|34=20|49=EXEC_SERVER|52=20260227-14:29:35.411|56=MINIFIX_CLIENT|10=156|8=FIX.4.4|9=69|35=0|34=21|49=EXEC_SERVER|52=20260227-14:30:05.407|56=MINIFIX_CLIENT|10=151|8=FIX.4.4|9=165|35=8|34=22|49=EXEC_SERVER|52=20260227-14:30:14.028|56=MINIFIX_CLIENT|6=0|11=56142958|14=0|17=EXEC_1772202614028|37=GEN_1772202614028|39=0|54=1|55=GOOG|150=0|151=100|10=186|8=FIX.4.4|9=165|35=8|34=23|49=EXEC_SERVER|52=20260227-14:30:17.932|56=MINIFIX_CLIENT|6=0|11=56142959|14=0|17=EXEC_1772202617931|37=GEN_1772202617931|39=0|54=1|55=GOOG|150=0|151=100|10=207|8=FIX.4.4|9=69|35=0|34=24|49=EXEC_SERVER|52=20260227-14:30:48.418|56=MINIFIX_CLIENT|10=163|8=FIX.4.4|9=69|35=0|34=25|49=EXEC_SERVER|52=20260227-14:31:19.363|56=MINIFIX_CLIENT|10=162|8=FIX.4.4|9=69|35=0|34=26|49=EXEC_SERVER|52=20260227-14:31:49.373|56=MINIFIX_CLIENT|10=167|8=FIX.4.4|9=69|35=0|34=27|49=EXEC_SERVER|52=20260227-14:32:19.391|56=MINIFIX_CLIENT|10=166|8=FIX.4.4|9=69|35=0|34=28|49=EXEC_SERVER|52=20260227-14:32:49.407|56=MINIFIX_CLIENT|10=168|8=FIX.4.4|9=69|35=0|34=29|49=EXEC_SERVER|52=20260227-14:33:19.413|56=MINIFIX_CLIENT|10=164|8=FIX.4.4|9=69|35=0|34=30|49=EXEC_SERVER|52=20260227-14:33:49.414|56=MINIFIX_CLIENT|10=160|8=FIX.4.4|9=69|35=0|34=31|49=EXEC_SERVER|52=20260227-14:34:19.407|56=MINIFIX_CLIENT|10=161|8=FIX.4.4|9=69|35=0|34=32|49=EXEC_SERVER|52=20260227-14:34:49.409|56=MINIFIX_CLIENT|10=167|8=FIX.4.4|9=69|35=0|34=33|49=EXEC_SERVER|52=20260227-14:35:19.414|56=MINIFIX_CLIENT|10=162|8=FIX.4.4|9=69|35=0|34=34|49=EXEC_SERVER|52=20260227-14:35:49.418|56=MINIFIX_CLIENT|10=170|8=FIX.4.4|9=69|35=0|34=35|49=EXEC_SERVER|52=20260227-14:36:19.415|56=MINIFIX_CLIENT|10=166|8=FIX.4.4|9=69|35=0|34=36|49=EXEC_SERVER|52=20260227-14:36:49.419|56=MINIFIX_CLIENT|10=174|8=FIX.4.4|9=69|35=0|34=37|49=EXEC_SERVER|52=20260227-14:37:19.419|56=MINIFIX_CLIENT|10=173|8=FIX.4.4|9=69|35=0|34=38|49=EXEC_SERVER|52=20260227-14:37:49.410|56=MINIFIX_CLIENT|10=168|8=FIX.4.4|9=69|35=0|34=39|49=EXEC_SERVER|52=20260227-14:38:19.406|56=MINIFIX_CLIENT|10=172|8=FIX.4.4|9=69|35=0|34=40|49=EXEC_SERVER|52=20260227-14:38:49.412|56=MINIFIX_CLIENT|10=164|8=FIX.4.4|9=69|35=0|34=41|49=EXEC_SERVER|52=20260227-14:39:19.412|56=MINIFIX_CLIENT|10=163|8=FIX.4.4|9=69|35=0|34=42|49=EXEC_SERVER|52=20260227-14:39:49.407|56=MINIFIX_CLIENT|10=171|8=FIX.4.4|9=69|35=0|34=43|49=EXEC_SERVER|52=20260227-14:40:19.408|56=MINIFIX_CLIENT|10=162|8=FIX.4.4|9=69|35=0|34=44|49=EXEC_SERVER|52=20260227-14:40:49.410|56=MINIFIX_CLIENT|10=159|8=FIX.4.4|9=69|35=0|34=45|49=EXEC_SERVER|52=20260227-14:41:19.405|56=MINIFIX_CLIENT|10=162|8=FIX.4.4|9=69|35=0|34=46|49=EXEC_SERVER|52=20260227-14:41:49.413|56=MINIFIX_CLIENT|10=165|8=FIX.4.4|9=69|35=0|34=47|49=EXEC_SERVER|52=20260227-14:42:19.410|56=MINIFIX_CLIENT|10=161|8=FIX.4.4|9=69|35=0|34=48|49=EXEC_SERVER|52=20260227-14:42:49.418|56=MINIFIX_CLIENT|10=173|8=FIX.4.4|9=69|35=0|34=49|49=EXEC_SERVER|52=20260227-14:43:19.411|56=MINIFIX_CLIENT|10=165|8=FIX.4.4|9=69|35=0|34=50|49=EXEC_SERVER|52=20260227-14:43:49.415|56=MINIFIX_CLIENT|10=164|8=FIX.4.4|9=69|35=0|34=51|49=EXEC_SERVER|52=20260227-14:44:19.419|56=MINIFIX_CLIENT|10=167|8=FIX.4.4|9=69|35=0|34=52|49=EXEC_SERVER|52=20260227-14:44:49.410|56=MINIFIX_CLIENT|10=162|8=FIX.4.4|9=69|35=0|34=53|49=EXEC_SERVER|52=20260227-14:45:19.407|56=MINIFIX_CLIENT|10=167|8=FIX.4.4|9=69|35=0|34=54|49=EXEC_SERVER|52=20260227-14:45:49.408|56=MINIFIX_CLIENT|10=172|8=FIX.4.4|9=69|35=0|34=55|49=EXEC_SERVER|52=20260227-14:46:19.405|56=MINIFIX_CLIENT|10=168|8=FIX.4.4|9=69|35=0|34=56|49=EXEC_SERVER|52=20260227-14:46:49.419|56=MINIFIX_CLIENT|10=177|8=FIX.4.4|9=69|35=0|34=57|49=EXEC_SERVER|52=20260227-14:47:19.704|56=MINIFIX_CLIENT|10=173|8=FIX.4.4|9=69|35=0|34=58|49=EXEC_SERVER|52=20260227-14:47:49.714|56=MINIFIX_CLIENT|10=178|8=FIX.4.4|9=69|35=0|34=59|49=EXEC_SERVER|52=20260227-14:48:19.730|56=MINIFIX_CLIENT|10=175|8=FIX.4.4|9=69|35=0|34=60|49=EXEC_SERVER|52=20260227-14:48:49.741|56=MINIFIX_CLIENT|10=172|8=FIX.4.4|9=69|35=0|34=61|49=EXEC_SERVER|52=20260227-14:49:19.758|56=MINIFIX_CLIENT|10=179|8=FIX.4.4|9=69|35=0|34=62|49=EXEC_SERVER|52=20260227-14:49:49.769|56=MINIFIX_CLIENT|10=185|8=FIX.4.4|9=69|35=0|34=63|49=EXEC_SERVER|52=20260227-14:50:19.776|56=MINIFIX_CLIENT|10=173|8=FIX.4.4|9=69|35=0|34=64|49=EXEC_SERVER|52=20260227-14:50:49.786|56=MINIFIX_CLIENT|10=178|8=FIX.4.4|9=69|35=0|34=65|49=EXEC_SERVER|52=20260227-14:51:19.799|56=MINIFIX_CLIENT|10=181|8=FIX.4.4|9=69|35=0|34=66|49=EXEC_SERVER|52=20260227-14:51:49.809|56=MINIFIX_CLIENT|10=177|8=FIX.4.4|9=69|35=0|34=67|49=EXEC_SERVER|52=20260227-14:52:19.819|56=MINIFIX_CLIENT|10=177|8=FIX.4.4|9=69|35=0|34=68|49=EXEC_SERVER|52=20260227-14:52:49.830|56=MINIFIX_CLIENT|10=174|8=FIX.4.4|9=69|35=0|34=69|49=EXEC_SERVER|52=20260227-14:53:19.846|56=MINIFIX_CLIENT|10=180|8=FIX.4.4|9=69|35=0|34=70|49=EXEC_SERVER|52=20260227-14:53:49.852|56=MINIFIX_CLIENT|10=172|8=FIX.4.4|9=69|35=0|34=71|49=EXEC_SERVER|52=20260227-14:54:19.869|56=MINIFIX_CLIENT|10=179|8=FIX.4.4|9=69|35=0|34=72|49=EXEC_SERVER|52=20260227-14:54:49.884|56=MINIFIX_CLIENT|10=180|8=FIX.4.4|9=69|35=0|34=73|49=EXEC_SERVER|52=20260227-14:55:19.897|56=MINIFIX_CLIENT|10=183|8=FIX.4.4|9=69|35=0|34=74|49=EXEC_SERVER|52=20260227-14:55:49.914|56=MINIFIX_CLIENT|10=177|8=FIX.4.4|9=69|35=0|34=75|49=EXEC_SERVER|52=20260227-14:56:19.916|56=MINIFIX_CLIENT|10=178|8=FIX.4.4|9=69|35=0|34=76|49=EXEC_SERVER|52=20260227-14:56:49.927|56=MINIFIX_CLIENT|10=184|8=FIX.4.4|9=69|35=0|34=77|49=EXEC_SERVER|52=20260227-14:57:19.934|56=MINIFIX_CLIENT|10=181|8=FIX.4.4|9=69|35=0|34=78|49=EXEC_SERVER|52=20260227-14:57:49.936|56=MINIFIX_CLIENT|10=187|8=FIX.4.4|9=69|35=0|34=79|49=EXEC_SERVER|52=20260227-14:58:19.950|56=MINIFIX_CLIENT|10=182|8=FIX.4.4|9=69|35=0|34=80|49=EXEC_SERVER|52=20260227-14:58:49.966|56=MINIFIX_CLIENT|10=184|8=FIX.4.4|9=69|35=0|34=81|49=EXEC_SERVER|52=20260227-14:59:19.969|56=MINIFIX_CLIENT|10=186|8=FIX.4.4|9=69|35=0|34=82|49=EXEC_SERVER|52=20260227-14:59:49.975|56=MINIFIX_CLIENT|10=187|8=FIX.4.4|9=69|35=0|34=83|49=EXEC_SERVER|52=20260227-15:00:19.989|56=MINIFIX_CLIENT|10=177|8=FIX.4.4|9=69|35=0|34=84|49=EXEC_SERVER|52=20260227-15:00:49.990|56=MINIFIX_CLIENT|10=173|8=FIX.4.4|9=69|35=0|34=85|49=EXEC_SERVER|52=20260227-15:01:19.996|56=MINIFIX_CLIENT|10=178|8=FIX.4.4|9=69|35=0|34=86|49=EXEC_SERVER|52=20260227-15:01:50.009|56=MINIFIX_CLIENT|10=159|8=FIX.4.4|9=69|35=0|34=87|49=EXEC_SERVER|52=20260227-15:02:20.013|56=MINIFIX_CLIENT|10=153|8=FIX.4.4|9=69|35=0|34=88|49=EXEC_SERVER|52=20260227-15:02:50.026|56=MINIFIX_CLIENT|10=161|8=FIX.4.4|9=69|35=0|34=89|49=EXEC_SERVER|52=20260227-15:03:20.034|56=MINIFIX_CLIENT|10=159|8=FIX.4.4|9=69|35=0|34=90|49=EXEC_SERVER|52=20260227-15:03:50.046|56=MINIFIX_CLIENT|10=157|8=FIX.4.4|9=69|35=0|34=91|49=EXEC_SERVER|52=20260227-15:04:20.050|56=MINIFIX_CLIENT|10=151|8=FIX.4.4|9=69|35=0|34=92|49=EXEC_SERVER|52=20260227-15:04:50.060|56=MINIFIX_CLIENT|10=156|8=FIX.4.4|9=69|35=0|34=93|49=EXEC_SERVER|52=20260227-15:05:20.072|56=MINIFIX_CLIENT|10=158|8=FIX.4.4|9=69|35=0|34=94|49=EXEC_SERVER|52=20260227-15:05:50.081|56=MINIFIX_CLIENT|10=162|8=FIX.4.4|9=69|35=0|34=95|49=EXEC_SERVER|52=20260227-15:06:20.085|56=MINIFIX_CLIENT|10=165|8=FIX.4.4|9=69|35=0|34=96|49=EXEC_SERVER|52=20260227-15:06:50.092|56=MINIFIX_CLIENT|10=167|8=FIX.4.4|9=69|35=0|34=97|49=EXEC_SERVER|52=20260227-15:07:20.107|56=MINIFIX_CLIENT|10=163|8=FIX.4.4|9=69|35=0|34=98|49=EXEC_SERVER|52=20260227-15:07:50.121|56=MINIFIX_CLIENT|10=163|8=FIX.4.4|9=69|35=0|34=99|49=EXEC_SERVER|52=20260227-15:08:20.136|56=MINIFIX_CLIENT|10=168|8=FIX.4.4|9=70|35=0|34=100|49=EXEC_SERVER|52=20260227-15:08:50.143|56=MINIFIX_CLIENT|10=192|8=FIX.4.4|9=70|35=0|34=101|49=EXEC_SERVER|52=20260227-15:09:20.155|56=MINIFIX_CLIENT|10=194|8=FIX.4.4|9=70|35=0|34=102|49=EXEC_SERVER|52=20260227-15:09:50.164|56=MINIFIX_CLIENT|10=198|8=FIX.4.4|9=70|35=0|34=103|49=EXEC_SERVER|52=20260227-15:10:20.167|56=MINIFIX_CLIENT|10=191|8=FIX.4.4|9=70|35=0|34=104|49=EXEC_SERVER|52=20260227-15:10:50.171|56=MINIFIX_CLIENT|10=190|8=FIX.4.4|9=70|35=0|34=105|49=EXEC_SERVER|52=20260227-15:11:20.177|56=MINIFIX_CLIENT|10=195|8=FIX.4.4|9=70|35=0|34=106|49=EXEC_SERVER|52=20260227-15:11:50.182|56=MINIFIX_CLIENT|10=195|8=FIX.4.4|9=70|35=0|34=107|49=EXEC_SERVER|52=20260227-15:12:20.196|56=MINIFIX_CLIENT|10=199|8=FIX.4.4|9=70|35=0|34=108|49=EXEC_SERVER|52=20260227-15:12:50.216|56=MINIFIX_CLIENT|10=196|8=FIX.4.4|9=70|35=0|34=109|49=EXEC_SERVER|52=20260227-15:13:20.223|56=MINIFIX_CLIENT|10=193|8=FIX.4.4|9=70|35=0|34=110|49=EXEC_SERVER|52=20260227-15:13:50.242|56=MINIFIX_CLIENT|10=189|8=FIX.4.4|9=70|35=0|34=111|49=EXEC_SERVER|52=20260227-15:14:20.259|56=MINIFIX_CLIENT|10=196|8=FIX.4.4|9=70|35=0|34=112|49=EXEC_SERVER|52=20260227-15:14:50.270|56=MINIFIX_CLIENT|10=193|8=FIX.4.4|9=70|35=0|34=113|49=EXEC_SERVER|52=20260227-15:15:20.289|56=MINIFIX_CLIENT|10=202|8=FIX.4.4|9=70|35=0|34=114|49=EXEC_SERVER|52=20260227-15:15:50.307|56=MINIFIX_CLIENT|10=197|8=FIX.4.4|9=70|35=0|34=115|49=EXEC_SERVER|52=20260227-15:16:20.311|56=MINIFIX_CLIENT|10=191|8=FIX.4.4|9=70|35=0|34=116|49=EXEC_SERVER|52=20260227-15:16:50.319|56=MINIFIX_CLIENT|10=203|8=FIX.4.4|9=70|35=0|34=117|49=EXEC_SERVER|52=20260227-15:17:20.335|56=MINIFIX_CLIENT|10=200|8=FIX.4.4|9=70|35=0|34=118|49=EXEC_SERVER|52=20260227-15:17:50.350|56=MINIFIX_CLIENT|10=201|8=FIX.4.4|9=70|35=0|34=119|49=EXEC_SERVER|52=20260227-15:18:20.367|56=MINIFIX_CLIENT|10=208|8=FIX.4.4|9=70|35=0|34=120|49=EXEC_SERVER|52=20260227-15:18:50.390|56=MINIFIX_CLIENT|10=199|8=FIX.4.4|9=70|35=0|34=121|49=EXEC_SERVER|52=20260227-15:19:20.405|56=MINIFIX_CLIENT|10=195|8=FIX.4.4|9=70|35=0|34=122|49=EXEC_SERVER|52=20260227-15:19:50.415|56=MINIFIX_CLIENT|10=200|8=FIX.4.4|9=70|35=0|34=123|49=EXEC_SERVER|52=20260227-15:20:20.413|56=MINIFIX_CLIENT|10=188|